:020000040800F2
:10000000C8790020E9020008372200085B200008B8
:10001000352200081D080008FF2400080000000029
:10002000000000000000000000000000290200089D
:10003000D10800080000000085020008D522000851
:100040000303000803030008030300080303000878
:100050000303000803030008030300080303000868
:100060000303000803030008030300080303000858
:100070000303000803030008030300080303000848
:100080000303000803030008030300080303000838
:100090000303000803030008030300080303000828
:1000A0000303000803030008030300080303000818
:1000B000A523000803030008B12300080303000878
:1000C00003030008030300080303000803030008F8
:1000D00003030008030300080303000803030008E8
:1000E00003030008030300080303000803030008D8
:1000F00003030008030300080303000803030008C8
:1001000003030008030300080303000803030008B7
:1001100003030008030300080303000803030008A7
:100120002108000803030008030300080303000874
:1001300003030008000000000000000003030008A3
:100140000303000803030008030300080303000877
:100150000303000803030008030300080303000867
:100160000303000803030008030300080303000857
:100170000303000803030008000000000000000063
:10018000030300080303000800F002F800F03CF845
:100190000AA090E8000C82448344AAF10107DA45E2
:1001A00001D100F031F8AFF2090EBAE80F0013F0F8
:1001B000010F18BFFB1A43F001031847FC38000079
:1001C0001C390000103A24BF78C878C1FAD8520709
:1001D00024BF30C830C144BF04680C6070470000C1
:1001E0000023002400250026103A28BF78C1FBD840
:1001F000520728BF30C148BF0B6070471FB503F0DE
:1002000007FC1FBD10B510BD00F0DAF91146FFF76D
:10021000F5FF02F08BF900F0F8F903B4FFF7F2FFF5
:1002200003BC00F0A1F900002C4B19680868B0E885
:10023000F04F80F30988BFF36F8F4FF0000080F319
:10024000118870470000000008480068006880F3CB
:1002500008884FF0000080F3148862B661B6BFF3DF
:100260004F8FBFF36F8F00DF00BF00BF08ED00E0CE
:10027000DFF80C00016841F470010160704700BFB5
:1002800088ED00E0EFF30980BFF36F8F134B1A681E
:100290001EF0100F08BF20ED108A20E9F04F10600B
:1002A00009B44FF0500080F31188BFF34F8FBFF3B4
:1002B0006F8F02F083FE4FF0000080F3118809BCBD
:1002C00019680868B0E8F04F1EF0100F08BFB0ECD6
:1002D000108A80F30988BFF36F8F704728000020D1
:1002E000EFF3058070470000094880470948004740
:1002F000FEE7FEE7FEE7FEE7FEE7FEE7FEE7FEE7D6
:10030000FEE7FEE704480549054A064B7047000032
:100310009523000889010008C8730020C8790020CF
:10032000C8750020C875002053EA020C00F06980EF
:100330002DE9F04B4FF00006002B1FBFB3FA83F5F9
:1003400003FA05F424FA05F65E4012BF1643B2FA2A
:1003500082F502FA05F4C5F120051EBF22FA05FC5C
:1003600044EA0C04203556EA044C4FEA144418BF02
:10037000641C4FF000084FF00009904271EB030C31
:1003800039D3002919BFB1FA81F701FA07F6B0FA9B
:1003900080F700FA07F6C7F120071EBF20FA07FC16
:1003A00046EA0C062037B6FBF4FCA7EB0507103F26
:1003B00007F01F0BCBF120060CFA0BFB2CFA06F60C
:1003C00044BFB3460026202FA4BF5E464FF0000B6B
:1003D0005BEA060C08BF4FF0010B19EB0B09ABFBF6
:1003E000027C48EB0608C01B06FB02CC0BFB03CCCF
:1003F00071EB0C01C1E70B46024641464846BDE899
:10040000F08B13B54FF000004FF00001AFF3008008
:10041000BDE81C407047002000F0ACF8FFF7F2FE8A
:10042000012000F0A1F8032A40F2308010F0030C04
:1004300000F0158011F8013BBCF1020F624498BF37
:1004400011F801CB00F8013B38BF11F8013BA2F1D4
:10045000040298BF00F801CB38BF00F8013B11F04F
:10046000030300F02580083AC0F0088051F8043BEF
:10047000083A51F804CBA0E80810F5E7121D5CBF5C
:1004800051F8043B40F8043BAFF30080D20724BF8F
:1004900011F8013B11F801CB48BF11F8012B24BF23
:1004A00000F8013B00F801CB48BF00F8012B704772
:1004B00010B5203AC0F00B80B1E81850203AA0E8FF
:1004C0001850B1E81850A0E81850BFF4F5AF5FEA33
:1004D000027C24BFB1E81850A0E8185044BF18C9E6
:1004E00018C0BDE810405FEA827C24BF51F8043B8D
:1004F00040F8043B08BF7047D20728BF31F8023BE1
:1005000048BF11F8012B28BF20F8023B48BF00F874
:10051000012B70474FF0000200B5134694469646F3
:10052000203922BFA0E80C50A0E80C50B1F1200106
:10053000BFF4F7AF090728BFA0E80C5048BF0CC0B4
:100540005DF804EB890028BF40F8042B08BF704712
:1005500048BF20F8022B11F0804F18BF00F8012B84
:10056000704770477047704701491820ABBEFEE7DF
:100570002600020010B500F00BF8BDE8104000F0B6
:1005800001B87047002801D0FFF7EEBF70470000A8
:1005900010B5002102A000F03EF8012010BD0000BF
:1005A000534947414252543A2041626E6F726D6125
:1005B0006C207465726D696E6174696F6E00000005
:1005C000754600F049F8AE4605006946534620F0EE
:1005D0000700854618B020B5FFF794FEBDE820401F
:1005E0004FF000064FF000074FF000084FF0000BEF
:1005F00021F00701AC46ACE8C009ACE8C009ACE8A2
:10060000C009ACE8C0098D4670470446AFF30080CE
:100610002046FFF702FE70B505460C460A2000E0B2
:100620006D1C00F011F835B128780028F8D102E0EF
:10063000641C00F009F814B120780028F8D1BDE856
:1006400070400A20AFF3008008B569468DF80000BD
:100650000320ABBE08BD000000487047687300204F
:1006600010B50146806B026C12F0500F05D0026C81
:10067000D20626D500F0E3FA10BD016C41F40071FA
:10068000016401688A6812F0405F17D1027EAAB93E
:10069000CA6A12F4700F02D08A6852050ED44A68F2
:1006A00022F020024A60016C21F480710164016C27
:1006B000C90403D4016C41F00101016400F0B0FAF7
:1006C00010BD806BC26CBDE810400846104710B5E5
:1006D000806B40210164416C41F00401416400F0F1
:1006E000AEFA10BD10B5806B00F0A8FA10BD000086
:1006F000464910B54A6822F440324A604A68436865
:100700001A434A6001684A6822F480724A600168AC
:100710004A68036942EA03224A6001684A6822F093
:1007200040724A6001684A6883681A434A600168F7
:100730008A6822F400628A6001688A68C3681A4382
:100740008A60334A816A914201688A6822F0706245
:100750008A6001688A680CD0836A1A438A600168DB
:100760008A6822F040528A6001688A68C36A1A4324
:1007700001E022F040528A6001688A6822F0020299
:100780008A6001688A68037E42EA43028A6090F8C0
:100790002010002901684A680FD042F400624A60C4
:1007A00001684A6822F460424A6001684A68194C4C
:1007B000436A04EB43331A4301E022F400624A60C7
:1007C0000168CA6A22F47002CA620168CA6A838B2D
:1007D000114C04EB03531A43CA6201688A6822F47D
:1007E00000728A6001688A6890F8303042EA4322D9
:1007F0008A6001688A6822F480628A6001688A6877
:10080000406942EA8020886010BD0000002301405A
:100810000100000F00E0FFFF0000F0FFFEE7000016
:10082000014800F02FBB0000D80100200168182308
:10083000CAB2103AB2FBF3F2054B6FF30901032A77
:100840009B5CC36500D9091D81650846704700009F
:10085000803A000810B5014600208B698A6A4FF083
:10086000C07453B1B3F5005F15D072B1012A0CD03A
:10087000022A0AD0032A09D104E01AB1012A06D0BB
:10088000022A03D1C96AC90100D5012010BDC96A75
:10089000A142FAD010BD002AF7D0012AF2D0022AD4
:1008A000F3D0032AF3D010BD30B50468256825F4D1
:1008B00080252560046863608368402B036803D04B
:1008C00099600068C26030BD9A600068C16030BD48
:1008D000704772B6FEE700002DE9F05F07461A4840
:1008E0000D46017E01290BD00121804601764CF294
:1008F0005036304600F0C6F84FF0000A18B11FE03D
:100900000220BDE8F09FB346104E4FF002090024CC
:10091000C8F81CA0306840F001003060200107EBEF
:100920004407C540ADB23D80584600F0ABF8316891
:1009300021F00101316018B9641CE4B24C45E7D3E1
:1009400088F818A0DDE7000058360020103C02406F
:10095000002229B101291AD002291BD04FF440727C
:100960000E490B6823F440730B600B6813430B6054
:100970000A6822F0F8020A600A68022303EBC0004A
:1009800002430A60086840F48030086070474FF402
:100990008072E5E74FF40072E2E70000103C02408D
:1009A0001348016889050FD5016821F400710160C1
:1009B000016841F400610160016821F40061016097
:1009C000016841F400710160016849050FD50168B3
:1009D00021F480610160016841F480510160016887
:1009E00021F480510160016841F480610160704729
:1009F000003C024008490A6822F440720A600A6812
:100A000042F004020A600A684FF4803343EA00208F
:100A100002430A6070470000103C02401749086812
:100A2000C206174805D5C26942F01002C261102201
:100A30000A600A68920605D5C26942F00802C261DE
:100A400020220A600A68520605D5C26942F00402F3
:100A5000C26140220A600A68120605D5C26942F0E6
:100A60000202C26180220A600A68920705D5C26943
:100A700042F02002C2610220086070470C3C024034
:100A80005836002070B5114904460020C86100F0B6
:100A9000E1FC06460E4D09E0601C07D024B100F0D1
:100AA000D9FC801BA04201D9032070BD2868C00377
:100AB000F2D42868C00701D001202860286810F00F
:100AC000F200F2D0FFF7AAFF012070BD58360020D7
:100AD0000C3C024078B50024009490F83C20012A98
:100AE00019D0012280F83C200A6807230568092AEA
:100AF00013D9EE680A3A02EB420293409E43EE603D
:100B00000B788A680A3B03EB43039A400368DD686D
:100B10002A43DA6010E0022078BD2E6902EB42021F
:100B200093409E432E610B788A6803EB43039A40FF
:100B300003681D692A431A614A681F23072A13D2D2
:100B400005686E6B521E02EB820293409E436E63F9
:100B50000B790A885B1E92B203EB83039A40036809
:100B60005D6B2A435A6327E005680D2A12D22E6B6B
:100B7000D21F02EB820293409E432E630B790A88B8
:100B8000DB1F92B203EB83039A4003681D6B2A4379
:100B90001A6311E0EE6A0D3A02EB820293409E4323
:100BA000EE620B790A880D3B92B203EB83039A4005
:100BB0000368DD6A2A43DA62164B0568144A9D42CF
:100BC00006D10D68122D03D1556845F48005556096
:100BD00005689D4218D10B68102B01D0112B13D141
:100BE000536843F400035360096810290CD10A4983
:100BF0000A4A0968B1FBF2F101EB8101490000E00A
:100C0000491E00910029FBD180F83C40002078BDAE
:100C100000230140002001402400002040420F003A
:100C200000680449884204D10348322203C801F015
:100C300031BD7047002001400C0000207047704714
:100C400070B504004FF0000503D0206C002610B1F1
:100C500007E0012070BD204600F01CF8666484F8AF
:100C60003C60206CC00610D4206C20F4885040F00A
:100C7000020020642046FFF73BFD6664206C20F0F4
:100C8000020040F00100206400E0012584F83C608F
:100C9000284670BD70B586B0064614216846FFF739
:100CA00039FC1D493068884234D11C480025016850
:100CB00041F480710160006800F48070059017486D
:100CC0001438016841F0010101600068694600F0D4
:100CD00001000590102000900320CDE90105104887
:100CE00000F0B2FA104C0F48C4E900050015A560E9
:100CF000C4E90350400060618000C4E90605C000FB
:100D0000C4E90805204600F091F908B1FFF7E1FDBC
:100D1000B463A66306B070BD0020014044380240B1
:100D20000000024010640240D8010020F8B50446DB
:100D300000200E46009094F83C10012907D00121B4
:100D400084F83C1021688B68DB0702D013E0022096
:100D5000F8BD8B6843F001038B604149414B096842
:100D6000B1FBF3F101EB410102E000BFA1F1010190
:100D700000910029FAD121688B68DB0503D58B68C7
:100D800023F480738B6021688B68DB075DD0236C54
:100D900040F20165AB4343F480732364496849051D
:100DA00005D5216C21F4005141F480512164216C5E
:100DB000C90404D5616C21F00601616400E060643F
:100DC00084F83C00A16B2948274DC863A16B2848D3
:100DD0000864A16B2748C86421686FF0220008608E
:100DE0002068416841F0806141602068816841F479
:100DF00080718160216813464C313246A06B00F04F
:100E00007FF968681C49C006206806D0884224D152
:100E1000816811F0405F13D01FE08842F8D0174A74
:100E2000904203D1D1F80423D206F1D0144A904263
:100E300013D1D1F8041301F01F011029E8D30CE0FD
:100E4000816841F08041816007E0206C40F0100033
:100E50002064606C40F0010060640020F8BD000078
:100E60002400002040420F000023014061060008DA
:100E7000E5060008CF0600080020014000210140DF
:100E8000002201402DE9F84304464FF00009CDF857
:100E9000009065484FF41651A56D0068B0FBF1F75E
:100EA0002E6894F85C10082000FA01F1314210D04D
:100EB00021680A6852070CD50A6822F004020A6009
:100EC00094F85C1000FA01F0A860606D40F0010039
:100ED000606594F85C104FF0010808FA01F03042A8
:100EE00008D021684969090604D5A860606D40F002
:100EF0000200606594F85C10042000FA01F03042B2
:100F000008D021680968890704D5A860606D40F0A1
:100F10000400606594F85C10102000FA01F0304283
:100F200018D021680968090714D5A86020680168ED
:100F3000490304D50068000308D5A16C07E00168E7
:100F4000C90503D4016821F008010160216C09B1D1
:100F50002046884794F85C10202000FA01F03042C7
:100F600031D021680968C9062DD5A86094F83500EC
:100F700005282068016806D0490347D500680003AA
:100F80001DD4616C1CE021F01601016020684169EC
:100F900021F080014161206C08B9A06C20B120686B
:100FA000016821F00801016094F85C103F2088403E
:100FB000A86084F8358084F83490216D1FE0E16BDF
:100FC00009B120468847606D00282BD0606DC007AE
:100FD00014D0052084F835002068016821F0010153
:100FE00001600098401C0090B84203D82068006857
:100FF000C007F6D184F8358084F83490E16C00297C
:1010000010D001B02046BDE8F04308470168C9058B
:10101000D5D4016821F01001016084F8358084F88E
:101020003490CCE7BDE8F883240000202DE9F0419E
:10103000044600F00FFA06465CB1022084F8350041
:10104000002584F834502068016821F00101016016
:101050000DE00120BDE8F08100F0FCF9801B0528BF
:1010600005D920206065032084F83500F2E7206868
:101070000068C007F0D12268116820480140D4E917
:1010800001031843D4E90336334318436369184313
:10109000A3691843E3691843236A18430843616A44
:1010A000042903D1D4E90B131943084310602068C5
:1010B0004069666A20F0070130460E430127042884
:1010C0000CD1A06A0643E06A40B12046FFF7C2FB9C
:1010D00020B14020606584F83570BAE72068466129
:1010E0002046FFF7A3FB94F85C203F2191408160EC
:1010F000656584F835700020ACE700003F8010F093
:101100002DE9F0410446866D90F834000025012851
:101110000DD0012084F8340094F835700020012FA0
:1011200007D084F8340002252846BDE8F08102206B
:10113000FBE7022784F8357060652046FFF7B4FBB3
:1011400094F85C103F208840B0602068016841F04E
:1011500016010160206C20B12068016841F008018F
:1011600001602068016841F001010160DCE70000D6
:101170002DE9F047044622480F46017E01290AD096
:101180000121804601764CF250394846FFF77AFC3F
:10119000020003D02FE00220BDE8F0874FF0FF30BF
:1011A00038602068174D012801D0A6681CE0207C1B
:1011B0006168FFF71FFC4846FFF764FC0246286899
:1011C00020F00400286014E0217C3046FFF7C0FBCB
:1011D0004846FFF757FC0200286820F0FA00286014
:1011E00001D03E6005E0761CD4E902100844B0420C
:1011F000EAD8FFF7D5FB002188F818101046CBE796
:1012000058360020103C02400348016841F000417C
:101210000160002070470000103C02400749002098
:101220000A68002A09DA054A054B0C3A1360054B97
:1012300013600968002900DA01207047103C024061
:1012400023016745AB89EFCD2DE9F84FDFF8BCA14D
:101250000022012503264FF00F090AF1040BAAF121
:10126000040E00BF0B6805FA02F42340A34270D1BC
:101270000F7907F00307012F01D0022F16D18768DD
:101280004FEA420806FA08FC27EA0C07D1F80CC01E
:101290000CFA08FC4CEA070CC0F808C04768A743E2
:1012A0000C79C4F3001494403C4344600C79E4434B
:1012B000A4070AD0C4684FEA420C06FA0CF7BC43F4
:1012C0008F6807FA0CF72743C7600C7904F0030412
:1012D000022C10D1D40800EB8407B8463F6A5407AB
:1012E0004FEAD46C09FA0CF4A7430C6904FA0CF425
:1012F0003C43C8F820400468570006FA07FC24EA7B
:101300000C0491F804C00CF0030C0CFA07FC4CEA36
:10131000040CC0F800C04C6814F4403F6FD03C4C43
:10132000276847F480472760246822F0030704F405
:1013300080440094374C3C44A046276894074FEA09
:10134000147C09FA0CF4A743334CA04202D10024C8
:1013500024E054E0314CA04201D101241EE0304C85
:10136000A04201D1022419E02E4CA04201D1032455
:1013700014E02D4CA04201D104240FE02B4CA042DC
:1013800001D105240AE02A4CA04201D1062405E03F
:10139000284CA04201D1072400E0082404FA0CF4F0
:1013A0003C43C8F80040DAF800405746D1F804C082
:1013B0009C435FEACC2C00D51C433C60DBF800402A
:1013C0005F46D1F804C09C435FEA8C2C00D51C43D7
:1013D0003C60DEF800407746D1F804C09C435FEAE9
:1013E0008C3C00D51C433C60084F083F3C68D1F85A
:1013F00004C09C435FEACC3C00D51C433C60521CBB
:10140000102AFFF42FAFBDE8F88F0000083C014020
:101410004438024008380140000002400004024005
:1014200000080240000C024000100240001402407C
:1014300000180240001C0240426921EA02030A40EF
:1014400043EA0241816170470AB181617047090432
:10145000FBE700000148806870470000180000208A
:1014600002488168027811448160704718000020AA
:101470000B4810B5016841F400710160016841F446
:1014800080610160016841F480710160032000F017
:101490009FF80F2000F006F800F050F8002010BD73
:1014A000003C024030B50546204887B00024016862
:1014B00041F001010160006806A900F00100009000
:1014C00001A800F031F90498B0B100F04DF94000E6
:1014D00017494FF08042B0FBF1F11648491E0260F7
:1014E00040F2E732C0E90324C0E90114846100F04E
:1014F0000FFC040003D015E000F036F9E8E70D48D2
:1015000000F048FC04000DD11C2000F033F8102D31
:1015100007D2002229461C2000F03AF80648056050
:1015200000E0012407B0204630BD000040380240F2
:1015300040420F00103600201C0000200C4882B0F2
:10154000016841F480410160006800F4804000902F
:101550000748001F016841F08051016000680022C7
:1015600000F0805000900F21901E02B000F010B8E3
:101570004438024000280ADB00F01F02012191409C
:1015800040094FF0E02202EB8000C0F800117047E4
:10159000F0B40E4B1B680C46C3F30223C3F10705DE
:1015A000042D00D90425191D072901D2002300E0CC
:1015B000DB1E012606FA05F1491E214099409E4096
:1015C000761E16403143F0BC00F09ABF0CED00E0EF
:1015D000064900F0070208684FF6FF03184040EA8A
:1015E0000220034A10430860704700000CED00E041
:1015F0000000FA052DE9F0470E46050065D0DFF83A
:101600001481D8F80000F7B200F00700B04207D20A
:1016100088F80070D8F8000000F00700B04254D1FC
:1016200028683D4C810712D5400703D5206840F457
:10163000E05020602878000703D5206840F460401F
:1016400020602068A96820F0F00008432060287816
:10165000C0072DD0304968680839012812D0022807
:1016600013D0032811D00968890700292DDA2168D1
:1016700021F0030101432160FFF7ECFE814641F2B6
:10168000883A0EE009688903EFE709688901ECE709
:10169000FFF7E0FEA0EB0901514502D90320BDE8A8
:1016A000F0872068696800F00C00B0EB810FEFD183
:1016B000D8F80010404601F00701B14207D9077081
:1016C000006800F00700B04201D00120E7E7287869
:1016D000400705D52068E96820F4E0500843206001
:1016E0002878000706D52068296920F4604040EA80
:1016F000C100206000F048F82168084AC1F30311D6
:10170000515CC8400649086006480068FFF7CAFEF9
:101710000020C4E7003C024008380240883A000834
:10172000240000201C0000200F2202600C4A1368D5
:1017300003F003034360136803F0F003836013684E
:1017400003F4E053C36012684FF4E05303EAD2029B
:1017500002610448006800F007000860704700005C
:1017600008380240003C0240044805490068096806
:10177000044AC1F38221515CC84070472400002014
:1017800008380240983A0008154810B5006810F073
:101790000C02144813D01449042A0FD0082A0ED181
:1017A0000F4C241F2268236802F03F025B0207D51A
:1017B0002068C0F38810A0FB010106E0084610BDB8
:1017C0002168C1F38811A1FB00010023FEF7ACFDE5
:1017D0002168C1F30141491C4900B0FBF1F010BD83
:1017E000083802400024F40040787D012DE9F84FCC
:1017F00004006ED02078DFF84C93C007A9F10405EF
:101800004AD009F104000168C1F38101012908D01F
:101810000068C0F3810002280AD1D9F80000400214
:1018200006D52868800337D560680028E1D033E00A
:101830006068B0F5803F10D0B0F5A02F286810D0B8
:1018400020F480302860286820F4802028606068B8
:10185000A8B1FFF7FFFD06460DE0286840F4803090
:10186000F4E740F480202860F7E700BFFFF7F2FDBF
:10187000801B642873D828688003F7D50CE0FFF735
:10188000E9FD064605E000BFFFF7E4FD801B642884
:10189000F0D828688003F7D42078DFF8AC8280077E
:1018A0004FF0000A3ED5A748001D016811F00C0F4B
:1018B00008D00068C0F3810002280BD1D9F80000DD
:1018C000400207D42868800716D5E068012800D1B7
:1018D00012E033E1E068B8B10120C8F80000FFF77A
:1018E000B9FD064605E000BFFFF7B4FD801B0228E6
:1018F000C0D828688007F7D52868216920F0F8004B
:1019000040EAC10028600DE0C8F800A0FFF7A2FD82
:10191000064604E0FFF79EFD801B0228AAD828682F
:101920008007F7D42078000722D5864F8748616961
:10193000703771B101210160FFF78CFD064604E0AC
:10194000FFF788FD801B022809D838688007F7D583
:101950000EE0C0F800A0FFF77DFD064605E083E03D
:10196000FFF778FD801B02287ED838688007F7D4FF
:101970002078400769D5DFF8CCB100270BF13C0B8C
:10198000DBF80000C0000BD4DBF8001041F0805100
:10199000CBF80010DBF80000012700F08050009029
:1019A0006B4E3068C00510D4306840F480703060F1
:1019B000FFF750FD009005E0FFF74CFD0099401A3D
:1019C000022851D83068C005F6D55E4EA0686C3646
:1019D00001280FD00528306810D020F001003060B9
:1019E000306820F004003060A068B8B1FFF732FD25
:1019F00000900FE0306840F00100F4E740F0040090
:101A00003060F7E7FFF726FD0099411A41F2883070
:101A1000814266D830688007F4D50EE0FFF71AFDE2
:101A2000009007E0FFF716FD0099411A41F2883057
:101A3000814256D830688007F4D4012F05D1DBF8F5
:101A4000001021F08051CBF80010A069C0B33D49CF
:101A5000091D0968C1F38101022949D002285046B5
:101A600007D0C8F8600000E03BE0FFF7F3FC044655
:101A70003AE04746C8F86000FFF7ECFC064604E091
:101A8000FFF7E8FC801B02282BD828688001F7D4D8
:101A9000D4E907010843A16A2E4A490802EB014133
:101AA000626A41EA8211084394F82C1040EA01610D
:101AB000C9F8001001203866FFF7CCFC044606E0A8
:101AC0003EE000BFFFF7C6FC001B022809D82868CB
:101AD0008001F7D534E000BFFFF7BCFC001B0228F3
:101AE00002D90320BDE8F88F28688001F4D427E0EC
:101AF0000128F7D0D9F80000E26900F48001914292
:101B00001CD1226A00F03F01914217D147F6C07103
:101B1000626A0140B1EB821F10D1A26A4FF0FF331D
:101B200000F4403103EB5202B1EB024F06D194F8BE
:101B30002C1000F07060B0EB016F01D00120D1E7F4
:101B40000020CFE70438024000004742800E4742A1
:101B5000007000400000FFFF70B5040009D0606A0B
:101B6000002540B125616561A56294F8510040B13E
:101B70000CE0012070BD6068B0F5827FF4D0E561B3
:101B8000F2E784F85050204600F044F8022084F830
:101B900051002068016821F040010160A08821897E
:101BA00000F4827001F404410843A18901F400614A
:101BB0000843217C01F002010843217D01F001016D
:101BC0000843218B01F400710843217F01F03801A3
:101BD000084394F8201001F080010843218D01F49E
:101BE0000051084321680860A069042101EA1040FF
:101BF00094F8241001F0100108432168486020681F
:101C0000C16921F40061C1616565012084F851005A
:101C1000002070BD10B586B0044614216846FEF75A
:101C200079FC13492068884220D1124800210268BB
:101C300042F480520260006800F4805005900D4824
:101C40001438026842F001020260006800F00100EE
:101C50000590E02000900220CDE9010103200390CF
:101C60000520049069460448FFF7EEFA06B010BD5F
:101C70000030014044380240000002407047704785
:101C800070B590F83C20012A31D0012480F83C4006
:101C9000022280F83D2003685A689D6822F0700691
:101CA0000A6832435A60134B02689A4214D0B2F168
:101CB000804F11D0104B9A420ED0104B9A420BD04D
:101CC0000F4B9A4208D00F4B9A4205D00E4B9A42C6
:101CD00002D00E4B9A4204D1496825F08003194383
:101CE00091603C30447000210170084670BD0220B4
:101CF00070BD0000000001400004004000080040EA
:101D0000000C004000040140004001400018004069
:101D100010B5040003D094F83D0010B107E0012095
:101D200010BD002084F83C00204600F015F8022089
:101D300084F83D00211D206800F040FB01203D3467
:101D400060726070A070E07020716071A071E071CD
:101D500020722070002010BD08B500680B49884231
:101D600012D10B48016841F00401016000680022B3
:101D700000F00400009005211E20FFF709FCBDE8DB
:101D800008401E20FFF7F6BB08BD00000008004019
:101D90004038024090F83D10012901D001207047E1
:101DA000022180F83D100168CA6842F00102CA6051
:101DB00000681149884214D0B0F1804F11D00F490A
:101DC00088420ED00E4988420BD00E49884208D076
:101DD0000D49884205D00D49884202D00C498842FD
:101DE00004D1816801F00701062903D0016841F0A0
:101DF0000101016000207047000001400004004024
:101E000000080040000C0040000401400040014078
:101E10000018004070B5044690F83C0000250128E9
:101E200017D0012684F83C60022084F83D00206829
:101E3000826822F0770222F47F428260086850288C
:101E400037D00DDC20284ED005DC88B3102811D106
:101E500049E0022070BD302845D040280AD13AE040
:101E600060282ED070280CD0B0F5805F03D0B0F57C
:101E7000005F11D001253C34667000202070284698
:101E800070BD4A68083120680AC900F003FB206869
:101E9000816841F0770109E04A68083120680AC981
:101EA00000F0F8FA2068816841F480418160E2E73F
:101EB00019E0CA684968206800F0FEFA50212068DD
:101EC00006E0CA684968206800F007FB60212068C6
:101ED00000F0EAFACFE7CA684968206800F0ECFA37
:101EE00040212068F4E7226801461046F0E7704779
:101EF0002DE9F04104460068C66805694FF0000707
:101F0000A90713D5B10711D5F91E0161012020776A
:101F1000206880698007204602D0FFF7E8FF04E0D0
:101F200000F07EF8204600F07CF82777680716D589
:101F3000700714D521686FF0040008610220207733
:101F40002068806910F4407F204602D0FFF7CFFF61
:101F500004E000F065F8204600F063F827772807D2
:101F600015D5300713D521686FF0080008610420EB
:101F700020772068C0698007204602D0FFF7B7FFAE
:101F800004E000F04DF8204600F04BF82777E80613
:101F900016D5F00614D521686FF0100008610820EE
:101FA00020772068C06910F4407F204602D0FFF7F8
:101FB0009EFF04E000F034F8204600F032F8277766
:101FC000E80708D0F00706D021686FF0010008612B
:101FD000204600F027F8280608D5300606D52168E7
:101FE0006FF0800008612046FFF748FE680608D5BC
:101FF000700606D521686FF040000861204600F0A9
:102000002BF8A8060AD5B00608D521686FF0200085
:1020100008612046BDE8F041FFF731BEBDE8F08120
:102020007047704710B504460068B0F1804F01D189
:10203000FFF716FA05492068884206D1BDE810402E
:10204000012203490348FEF771BE10BD000800409D
:1020500010000020900000207047FEE77FB50024AC
:10206000144800940194029411490394C0E90014A7
:1020700084600461047680F820400F49C0E90A14A6
:102080000125C561C46080F830404561FEF7D8FD88
:1020900008B172B6FEE70420CDE900056946029456
:1020A0000448FEF717FD002801D072B6FEE77FBD99
:1020B00000200140900000200100000F174808B5E3
:1020C0000268002142F4800202600068144A00F4B1
:1020D000800000901348C0E90021802282609200B5
:1020E000C2605200C0E90421D2018161C0E9071237
:1020F000042242620322C0E90A210163FEF796FF2F
:1021000008B172B6FEE7002205213820FFF740FA39
:10211000BDE808403820FFF72DBA000030380240F3
:10212000286402407801002030B587B01421684649
:10213000FEF7F0F911480024016841F00101016047
:10214000016801F001010591016841F0020101609F
:1021500000680B4D00F0020005902246072128463A
:10216000FFF772F9072000900120CDE901046946CC
:1021700028460394FFF768F807B030BD30380240B6
:10218000000402400F4810B50D4901604FF4827100
:10219000416000218160C1604FF400720161C0E9BB
:1021A00005122822C0E90721416281620A21C16229
:1021B000FFF7D2FC002801D072B6FEE710BD000088
:1021C00000300140D800002010B586B00024184827
:1021D00000940194029403940494144905940160BA
:1021E00040F2DF11C0E901144CF25031C0E9031490
:1021F00080218161FFF78CFD08B172B6FEE74FF4D4
:102200008050009069460A48FFF704FE08B172B694
:10221000FEE7049404A906480594FFF731FD002861
:1022200001D072B6FEE706B010BD00000008004005
:1022300030010020FEE7FEE78AB01448FFF7AAFD50
:1022400008B1FEF7E8F80020009002200121104CB0
:10225000104F114DCDE90201C61E0490324605A86B
:10226000E16800F0CDF901213846FFF7E5F8FEF707
:10227000D5FF08A96846FEF77BFF28460699FEF7BA
:102280002BFBFEF7C1FF28686061E7E73001002003
:10229000000000200004024000800008054C4FF4BC
:1022A0007A7502212046FFF7C7F8284600F088F922
:1022B000F7E7000000040240054C4FF47A75042152
:1022C0002046FFF7B9F8284600F07AF9F7E7000052
:1022D0000004024010B5502080F31188BFF34F8FE7
:1022E000BFF36F8F01F046FA18B104494FF08050E8
:1022F0000860002080F3118810BD000004ED00E0AC
:1023000030B593B030216846FEF704F914210CA8CB
:10231000FEF700F91D480025016841F08051016079
:10232000006800F0805011901948016841F4804124
:1023300001600068022400F48040119001200390A5
:1023400010200490009406940820CDE907506020E6
:10235000CDE9090404200B906846FFF747FA08B15D
:1023600072B6FEE70CA90F2031C14FF4A0500F90B8
:102370004FF48050109003210CA8FFF73BF9002880
:1023800001D072B6FEE713B030BD00004038024005
:10239000007000400248016841F47001016070471C
:1023A00088ED00E00148FFF7A3BD000010360020D3
:1023B0000148FFF79DBD000030010020F0B5026824
:1023C000294C2A4D2A4E2B4F2B4B4FF0804CA042CC
:1023D00009D0604507D0A84205D0B04203D0B8422A
:1023E00001D0984204D122F0700E4A6842EA0E02EF
:1023F000A0421BD0604519D0A84217D0B04215D0DA
:10240000B84213D0984211D01C4DA8420ED01C4D9A
:10241000A8420BD01B4DA84208D01B4DA84205D0A6
:102420001A4DA84202D01A4DA84203D122F4407599
:10243000CA682A434D6922F080022A4302608A68F2
:10244000C2620A688262A04201D0984201D1096941
:102450000163012141610169C90703D0016921F0CC
:1024600001010161F0BD00000000014000040040D6
:1024700000080040000C0040000401400040014002
:10248000004401400048014000180040001C00408A
:102490000020004010B5846842EA032224F47F44FF
:1024A0000A432243826010BD826822F070020A4310
:1024B00042F007018160704710B5036A046A24F096
:1024C00001040462846924F0F00444EA021423F055
:1024D0000A020A438461026210BD10B5036A046AED
:1024E00024F010040462846923F0A00324F47044EF
:1024F00044EA023243EA01118261016210BDFEE743
:102500000907090E002801DB034A02E0034A00F034
:102510000F0081547047000000E400E014ED00E07B
:10252000EFF30580002800D0012070479AB0FEF735
:102530009FFFFFF7E5FEFFF7F7FDFFF7BFFDFFF792
:102540008DFDFFF741FEFFF71DFE184B0DF1540CFA
:102550000FCBACE80F00002115A800F03DF8144C9B
:1025600012491C22E06010316846FDF7A1FF0021EE
:10257000684600F0BDF80D4920601C222C3107A8E8
:10258000FDF796FF002107A800F0B2F80749606048
:102590001C2248310EA8FDF78BFF00210EA800F089
:1025A000A7F8A06000F013F8FEE700001C3A00084E
:1025B0000000002001460020842900D0C81C70477C
:1025C00010B500B9012000F06FFC002010BD10B55F
:1025D00000F0B6FC002010BD38B5D0E90112046847
:1025E0003AB1C3682BB100200090204600F0B1FD45
:1025F00038BD2046BDE83840002200F089BD00000B
:102600002DE9FF410D004FF00006CDE901650746B9
:102610001ED000240396501C1FD002B11446FFF7B1
:102620007FFF69464FF01008E8B103AA091D28464C
:1026300000F0B2FF012813D000960398E8B11449C6
:102640004FF080500860BFF34F8FBFF36F8F14E0DF
:10265000802031462A46009011E04FF0FF34DEE73B
:10266000CDF80080E9E72246091D284600F0F8FE73
:10267000012807D04CB1402000909DE8070007C713
:10268000BDE8FF81CDF80080F7E70020F4E7000007
:1026900004ED00E037B5054682B00020009014003C
:1026A00000D10124FFF73CFF4FF0000388B16A46D8
:1026B00003A9284600F074FE012811D1009890B1BA
:1026C0000A494FF080500860BFF34F8FBFF36F8F00
:1026D00009E0224603A9284600F0B2FD012802D0F5
:1026E000FF2005B030BD0020FBE7000004ED00E056
:1026F0007FB50D4604464169B0F9080081B1A16972
:1027000071B1FFF757FFD4E905128DE80700D4E94E
:1027100000102B46226900F0F4FF039004B070BD56
:10272000FFF748FF03A9CDE90001208A2B4682B2BA
:10273000D4E9001000F0B8FF012801D00020EDE737
:102740000398EBE72DE9F041184C0F460546E66883
:102750002068001D00F0B6FA38B9206890F82C10F7
:1027600001208840216981432161681C07D137B16C
:102770002168BDE8F041091D0D4800F0E7BA206866
:102780003544B5424560216801F1040104D2A06BD3
:10279000BDE8F04100F0C2BA606B00F0BFFAA06A79
:1027A000854200D2A562BDE8F0810000280000202B
:1027B000543700202DE9F041054600F0D3FA2E4CA5
:1027C000A068401CA06020682C4F10B1606940B325
:1027D0002DE02560A068012829D1002606EB86009F
:1027E00007EB800000F08CFA761C072EF6D3234806
:1027F0008C3000F085FA2148A03000F081FA1F48A3
:10280000B43000F07DFA1D48C83000F079FA1B485A
:10281000DC3000F075FA19488C3060631430A06326
:1028200005E02068E96AC06A884200D82560606ACD
:10283000401C6062E96A01202269884010432061DF
:1028400001EB810007EB8000291D00F07FFA00F00A
:10285000A9FA606900280CD02068E96AC06A884239
:1028600007D207494FF080500860BFF34F8FBFF386
:102870006F8FBDE8F081000028000020783600202E
:1028800004ED00E030B4026C0B46002A0BD0C168A6
:102890001144C1608468A14201D30168C16030BCA9
:1028A0001846FDF7C0BD30BC70472DE9F041856B7F
:1028B000174604460026026C82B1C7B1E068FDF7F6
:1028C000B2FDE168206C091AE1602268914202D2EF
:1028D000A168081AE060022F16D017E02068A8B996
:1028E000A06800F0ADFF06460020A0600EE0606822
:1028F000FDF799FD216C606808446060A16888421A
:1029000004D32068606001E005B16D1E6D1CA563F5
:102910003046BDE8F08110B5044690F8510058B13A
:1029200001280CD002280FD0502080F31188BFF36B
:102930004F8FBFF36F8FFEE7206B00F047FA204602
:10294000BDE8104000F042BA10BD000010484FF43E
:102950007051420706D0C01D0D4920F00700411AF2
:10296000C1F570510B4A00230144C2E90003083944
:10297000183A21F0070111604B600B600B1AC0E997
:10298000001393604FF000405360506170470000A7
:10299000683700207C000020144E154CA6F1C807B3
:1029A0004FF08058DFF84C9012E000BF00F0DAF9E9
:1029B000F068C568281D00F085F9A068401EA06079
:1029C0006068401E606000F0EDF92846FFF7A3FF45
:1029D00060680028EAD138680128F9D9C9F8008070
:1029E000BFF34F8FBFF36F8FF2E700004037002037
:1029F0002800002004ED00E00346009829B10260A1
:102A0000C0E90F31012100F0D7BB0060F8E72DE9E4
:102A1000F0479A46DDE9098481466FF00303206B95
:102A200003EB82021044089E20F00707780707D0C6
:102A3000502080F31188BFF34F8FBFF36F8FFEE7F5
:102A4000002561B1002023180A5C83F834200A5C59
:102A500012B1401C1028F6D384F8435001E084F8EA
:102A60003450072E00D30626E662C4E91165201D06
:102A700000F051F904F1180000F04DF9C6F107001B
:102A80002461A0616462E56484F85050524649466E
:102A9000384600F001F92060B8F1000F01D0C8F805
:102AA0000040BDE8F087000030B5114900E0114654
:102AB0000A688242FBD34B685C18844203D14068A9
:102AC00018444860084643681C18944209D1084CD1
:102AD000183C2468A24209D052681A4442600A682D
:102AE00012680260814200D0086030BD0460F9E7DE
:102AF0007C00002010B5044600F034F9A06B28B12A
:102B00005FF0000400F04EF9204610BD0124F9E703
:102B10000648416B096829B1416BC968C9684968B1
:102B2000816270474FF0FF31FAE700002800002073
:102B300006484068401C4FF0500080F31188BFF3F6
:102B40004F8FBFF36F8F00D0FEE7FEE784000020B9
:102B50002DE9F041044600F005F994F9455004F1DF
:102B6000240609E0606A48B1304600F0B5FE08B1BD
:102B700000F0C8F96D1E6DB2002DF3DC4FF0FF368A
:102B800084F8456000F00EF900F0ECF894F9445038
:102B900004F1100709E0206948B1384600F09CFEB6
:102BA00008B100F0AFF96D1E6DB2002DF3DC84F8B2
:102BB0004460BDE8F04100F0F5B800002DE9F041B7
:102BC0000546002700F0F2F9324E306808B9FFF7E9
:102BD000BDFE706905424ED1C5B3083568070ED0F9
:102BE00005F00700C0F108000544680707D0502031
:102BF00080F31188BFF34F8FBFF36F8FFEE72DB3C4
:102C00007068854237D82348183001460C6801E0C7
:102C100020460C466168A94202D221680029F7D1FA
:102C200031688C4227D007682168016060680837E6
:102C3000411B10290FD96019420708D0502080F39A
:102C40001188BFF34F8FBFF36F8FFEE713E0416032
:102C50006560FFF729FF61687068401A7060B268AC
:102C6000904200D2B060706901430020C4E90001C5
:102C7000F068401CF06000F069FE780707D0502033
:102C800080F31188BFF34F8FBFF36F8FFEE7384695
:102C9000BDE8F0816400002010B5031F4FF0807480
:102CA0001C601B1F21F001011960191F044B0B60F0
:102CB00014390A60091F6FF0020244380A6010BD1F
:102CC000312B0008D0E9013201699A60D0E9012373
:102CD0005A604A68824201D182684A6000220261D9
:102CE0000868401E0860086870470000034B0360D6
:102CF00003F154000860802010607047BC3300204E
:102D000000F108014FF0FF32C0E90112C16001611A
:102D100000210160704700210161704730B50B68E8
:102D20005A1C02D000F1080202E0026904E02246C7
:102D3000546825689D42FAD953684B6099608A604F
:102D4000516008610168491C016030BD42684A60F9
:102D500093688B6093685960916008610168491CB1
:102D600001607047502080F31188BFF34F8FBFF38D
:102D70006F8F0A494868401C486001280CD10848F8
:102D8000006810F0FF0F07D0502080F31188BFF3C8
:102D90004F8FBFF36F8FFEE7704700008400002065
:102DA00004ED00E00849486828B1401E486001D1A0
:102DB00080F311887047502080F31188BFF34F8F44
:102DC000BFF36F8FFEE700008400002070B500287D
:102DD0002AD0164DA0F1080460686969084209D03C
:102DE00022687AB1502080F31188BFF34F8FBFF370
:102DF0006F8FFEE7502080F31188BFF34F8FBFF332
:102E00006F8FFEE78843606000F0D0F86068696803
:102E1000084468602046FFF747FE2869401C286187
:102E2000BDE8704000F092BD70BD0000640000205D
:102E30004FF0E02000210161816105494FF47A7271
:102E40000968B1FBF2F1491E416107210161704738
:102E50002400002010B5FDF743FA114910280FD3C4
:102E60004FF0E022104490F8F0030A78904207D225
:102E7000502080F31188BFF34F8FBFF36F8FFEE7B1
:102E800008480068896800F4E060884207D950204B
:102E900080F31188BFF34F8FBFF36F8FFEE710BD34
:102EA000840000200CED00E010B5020014D00F48A3
:102EB000006B38B1502080F31188BFF34F8FBFF300
:102EC0006F8FFEE700F072F800211046FFF73AFC22
:102ED00000F03CFD002807D105494FF08050086004
:102EE000BFF34F8FBFF36F8F10BD0000280000208D
:102EF00004ED00E002490A6A0260C9684160704757
:102F00002800002001490120C861704728000020E6
:102F100010B50C4650B1094909681831FFF7FEFE9B
:102F20002046BDE810400121FFF70CBC502080F383
:102F30001188BFF34F8FBFF36F8FFEE7280000208B
:102F400010B586B00024039405AA04A903A804942C
:102F5000FFF7CCFEDDE903010094CDE90110002369
:102F60000EA11048059A00F0CCFB0F490028C8625A
:102F700011D0502080F31188BFF34F8FBFF36F8FB4
:102F80004FF0FF30886201204861CC6006B0BDE898
:102F9000104000F041B806B010BD000049444C4557
:102FA0000000000099290008280000200248016B59
:102FB000491C016370470000280000201448016B81
:102FC00011B10121C16170470021C1610169B1FAEC
:102FD00081F1C1F11F0101EB81020E4951F822304C
:102FE0006BB101EB820101F108034A6852684A6043
:102FF0009A4201D152684A60D168016070475020FE
:1030000080F31188BFF34F8FBFF36F8FFEE700008F
:1030100028000020783600201CB538480168384A5E
:10302000914207D1502080F31188BFF34F8FBFF337
:103030006F8FFEE700683249491E884207D1502051
:1030400080F31188BFF34F8FBFF36F8FFEE72D49D9
:1030500008780190FF20087008788DF800009DF82E
:1030600000009DF8002000F0F000904207D05020B2
:1030700080F31188BFF34F8FBFF36F8FFEE79DF88A
:103080000000214C00F0500020700720A06007E0F5
:103090009DF80020A0F101004FEA42028DF80020C7
:1030A0009DF800201206F3D4A060032807D050201A
:1030B00080F31188BFF34F8FBFF36F8FFEE74FF49C
:1030C0004070A060019808700C482030016841F4FD
:1030D00070010160016841F070410160FFF7A8FED6
:1030E00000206060FDF7C4F80848016841F04041E5
:1030F0000160FDF7A9F800201CBD000000ED00E014
:1031000071C20F4100E400E08400002034EF00E0D1
:10311000F8B517460E46050013D005FB06F04830FB
:10312000FFF74CFD04000AD0002084F8460004F1AB
:1031300048023B46314628460094FFF75DFC204696
:10314000F8BD502080F31188BFF34F8FBFF36F8F0E
:10315000FEE738B5049D18B153B1CAB181B120E082
:10316000502080F31188BFF34F8FBFF36F8FFEE7BE
:10317000502080F31188BFF34F8FBFF36F8FFEE7AE
:10318000502080F31188BFF34F8FBFF36F8FFEE79E
:1031900039B1502080F31188BFF34F8FBFF36F8F89
:1031A000FEE748241C46012384F846302B46009451
:1031B000FFF722FC204638BD70B50D46040025D02F
:1031C000FFF7D0FDD4E90F20216802FB0011A160B8
:1031D0000021A163216861600A46E06B216C401EFA
:1031E00000FB0121E16004F144014FF0FF30087061
:1031F000487004F110008DB1FFF782FD04F1240046
:10320000FFF77EFDFFF7CEFD012070BD502080F35B
:103210001188BFF34F8FBFF36F8FFEE7216900293D
:10322000F0D000F059FB0028ECD004494FF080505A
:103230000860BFF34F8FBFF36F8FE3E704ED00E04B
:103240002DE9FF4782B01D468A464FF00008040072
:1032500003D0BAF1000F08D011E0502080F311889C
:10326000BFF34F8FBFF36F8FFEE7206C38B1502054
:1032700080F31188BFF34F8FBFF36F8FFEE7022DEE
:103280000AD1E06B012807D0502080F31188BFF3EA
:103290004F8FBFF36F8FFEE700F05EFA3F4F4FF0A6
:1032A00000094FF0805648B9049838B1502080F397
:1032B0001188BFF34F8FBFF36F8FFEE7FFF752FD0B
:1032C000A06BE16B884207D3022D05D00498D0B1E2
:1032D000B8F1000F1AD01EE02A4651462046FFF7EB
:1032E000E4FA616A19B104F1240000F0F5FA20B1A2
:1032F0003E60BFF34F8FBFF36F8FFFF753FD012089
:1033000006B0BDE8F087FFF74DFD22E06846FFF705
:10331000F1FD4FF00108FFF745FDFFF747FEFFF70E
:1033200021FD94F94400401C01D184F8449094F9A3
:103330004500401C01D184F84590FFF733FD04A9F6
:10334000684600F077F930B12046FFF701FC00F045
:10335000FDFA0020D4E7FFF705FDA06BE16B884282
:1033600013D1FFF71FFD04F110000499FFF7D0FD02
:103370002046FFF7EDFB00F0E9FA00289ED13E6001
:10338000BFF34F8FBFF36F8F98E7FFF70BFD20461A
:10339000FFF7DEFB00F0DAFA90E7000004ED00E052
:1033A0002DE9F0471F4690468946040003D0B9F145
:1033B000000F08D011E0502080F31188BFF34F8F29
:1033C000BFF36F8FFEE7206C38B1502080F3118877
:1033D000BFF34F8FBFF36F8FFEE7022F0AD1E06B71
:1033E000012807D0502080F31188BFF34F8FBFF31F
:1033F0006F8FFEE7FFF72EFD5020EFF3118680F36D
:103400001188BFF34F8FBFF36F8FA06BE16B8842C2
:1034100006D3022F04D0002086F31188BDE8F08780
:1034200094F94550A06B3A4649462046FFF73DFACD
:10343000681C04D06D1C84F845500120ECE7606ADC
:103440000028FAD004F1240000F046FA0028F4D055
:10345000B8F1000FF1D00121C8F80010EDE700002D
:103460002DE9F747002683B08A46040003D0BAF15D
:10347000000F08D011E0502080F31188BFF34F8F68
:10348000BFF36F8FFEE7206C38B1502080F31188B6
:10349000BFF34F8FBFF36F8FFEE700F05DF9DFF8EA
:1034A000F4804FF000094FF0805748B9059838B1C3
:1034B000502080F31188BFF34F8FBFF36F8FFEE76B
:1034C000FFF750FCA56BC5B151462046FFF7DAF96E
:1034D0006D1EA563206950B104F1100000F0FCF9E5
:1034E00028B1C8F80070BFF34F8FBFF36F8FFFF79D
:1034F00059FC012006B0BDE8F087059808B11EB15F
:1035000006E0FFF74FFC27E06846FFF7F3FC0126D3
:10351000FFF748FCFFF74AFDFFF724FC94F944004D
:10352000401C01D184F8449094F94500401C01D11D
:1035300084F84590FFF736FC05A9684600F07AF854
:10354000002820460AD0FFF703FB00F0FFF92046D1
:10355000FFF7D0FA0028B3D00020CBE7FFF7CAFA74
:1035600090B104F124000599FFF7D2FC2046FFF743
:10357000EFFA00F0EBF90028A2D1C8F80070BFF311
:103580004F8FBFF36F8F9BE72046FFF7E1FA00F004
:10359000DDF995E704ED00E02DE9F0479046894616
:1035A000040003D0B9F1000F08D011E0502080F3DF
:1035B0001188BFF34F8FBFF36F8FFEE7206C38B1D8
:1035C000502080F31188BFF34F8FBFF36F8FFEE75A
:1035D000FFF740FC5020EFF3118680F31188BFF312
:1035E0004F8FBFF36F8FA76BF7B194F944504946E3
:1035F0002046FFF747F97F1EA763681C04D06D1CA7
:1036000084F84450012010E020690028FAD004F129
:10361000100000F061F90028F4D0B8F1000FF1D0EB
:103620000121C8F80010EDE7002086F31188BDE8FD
:10363000F08700002DE9F0410C46050011D0C4B11F
:10364000FFF790FB174BDA686E682068911B471CE8
:1036500017D02F681B6A9F4219D0964217D80124B1
:1036600010E0502080F31188BFF34F8FBFF36F8FAE
:10367000FEE7502080F31188BFF34F8FBFF36F8FA9
:10368000FEE70024FFF78EFB2046BDE8F08188426C
:1036900005D9401A20602846FFF72CFCF1E70020EE
:1036A0002060DCE7280000202DE9FF5F8346DDE98C
:1036B0000E87994616468A469000FFF77FFA050066
:1036C0001CD05420FFF77AFA040014D000202563A0
:1036D00084F85100CDE90240CDE900874B463246DF
:1036E00051465846FFF793F92046FFF763F801204B
:1036F00004B0BDE8F09F2846FFF768FB4FF0FF30AD
:10370000F6E7F0B585B0DDE90B640A9DA6B1DCB142
:10371000542700972663022684F85160002604AFE0
:10372000CDE90246CDE90057FFF771F92046FFF7D2
:1037300041F8049805B0F0BD502080F31188BFF324
:103740004F8FBFF36F8FFEE7502080F31188BFF3D8
:103750004F8FBFF36F8FFEE70548416919B1006BCA
:1037600018B1002070470120704702207047000008
:10377000280000202DE9F0412F4C0026206B28B1B5
:10378000A069401CA0613046BDE8F081E5686D1C71
:10379000E56013D1606B006838B1502080F3118868
:1037A000BFF34F8FBFF36F8FFEE7606BA16B616359
:1037B000A063206A401C2062FFF7AAF9A06ADFF824
:1037C0007C80854209D3606B0068A0B1606BC068E3
:1037D000C7687868854211D2A0622068C06A00EB91
:1037E000800158F82100012800D90126E06900284D
:1037F000C9D00126C7E74FF0FF30EDE7381DFFF7CE
:1038000061FAB86A18B107F11800FFF75BFAF96AB4
:103810000120226988401043206101EB810108EBFF
:103820008100391DFFF792FAF86A2168C96A884257
:10383000C9D30126C7E70000280000207836002001
:1038400070B504004FF0000140D0214D286884423B
:1038500007D0502080F31188BFF34F8FBFF36F8FD5
:10386000FEE7A06C38B1401EA064636CE26A9A4225
:103870002CD040B12AE0502080F31188BFF34F8F45
:10388000BFF36F8FFEE7201DFFF71CFA114A0121DD
:1038900050B9E06A00EB800352F8233023B92B695A
:1038A00001FA00F083432B61606CE062C0F1070015
:1038B000A061E06A2B6981401943296100EB800017
:1038C00002EB8000211DFFF741FA0121084670BD7F
:1038D00028000020783600202DE9F041C068C46837
:1038E000ACB104F118000746FFF7ECF9154D286B51
:1038F0000126A0B139461448FFF728FAE06A296882
:10390000C96A88421CD90120EE61BDE8F0815020CF
:1039100080F31188BFF34F8FBFF36F8FFEE7201D39
:10392000FFF7D0F9E16A2A6906FA01F0104328612D
:1039300001EB81000449B43901EB8000211DDBE774
:103940000020E2E7280000202C3700202DE9F04776
:103950002C4D00242746286B38B1FFF703FA286B5B
:10396000401E2863286B40B146E0502080F3118848
:10397000BFF34F8FBFF36F8FFEE7A968224E012080
:10398000D1B3A6F1B40980463068E8B1F068C468E4
:1039900004F11800FFF796F9201DFFF793F9E06A8C
:1039A0002A6908FA00F11143296100EB800109EB53
:1039B0008100211DFFF7CAF9E06A2968C96A8842B7
:1039C000E2D3C5F81C80DFE70CB1FFF7A1F8AC69C2
:1039D00044B14646FFF7CEFE00B1EE61641EF9D158
:1039E0000020A861E86938B1084901273807086054
:1039F000BFF34F8FBFF36F8FFFF7D4F93846BDE8A1
:103A0000F0870000280000202C37002004ED00E0A3
:103A10004FF04070E1EE100A704700001000000007
:103A2000040000003433002074330020A03A000862
:103A3000392200080100000000000000000400001E
:103A40003802002038120020A73A00089D22000802
:103A50000100000000000000000400008C120020A3
:103A60008C220020AE3A0008B922000801000000B4
:103A70000000000000040000E0220020E0320020EE
:103A800000061016000610160000000000000000DE
:103A900001020304060708090000000001020304F4
:103AA0005461736B3031005461736B303200546178
:103AB000736B303300000000D83A0008000000208B
:103AC00090000000C4010008683B0008900000203E
:103AD00038790000E001000800000000000000004C
:103AE00000000000000000000000000000000000D6
:103AF0000100000010000000000000000024F4009D
:103B000000000000000000000000000000000000B5
:103B100000000000000000000000000000000000A5
:103B20000000000000000000000000000000000095
:103B30000000000000000000000000000000000085
:103B40000000000000000000000000000000000075
:103B50000000000000000000000000000000000065
:083B6000AAAAAAAA00000000B5
:040000050800018965
:00000001FF
