:020000040800F2
:10000000A07B0020F1020008EF300008E32D00087B
:10001000ED300008210A0008073A0008000000003F
:100020000000000000000000000000003102000895
:10003000E10A0008000000008D020008E137000816
:100040000B0300080B0300080B0300080B03000858
:100050000B0300080B0300080B030008E30A000869
:100060000B0300080B0300080B0300080B03000838
:100070000B0300080B0300080B0300080B03000828
:100080000B0300080B0300080B0300080B03000818
:100090000B0300080B0300080B0300080B03000808
:1000A0000B0300080B0300080B0300080B030008F8
:1000B000AD3800080B030008B93800080B0300082E
:1000C0000B0300080B0300080B0300080B030008D8
:1000D0000B0300080B0300080B0300080B030008C8
:1000E0000B0300080B0300080B0300080B030008B8
:1000F0000B0300080B0300080B0300080B030008A8
:100100000B0300080B0300080B0300080B03000897
:100110000B0300080B0300080B0300080B03000887
:10012000310A00080B0300080B0300080B0300084A
:100130000B03000800000000000000000B03000893
:10014000250A00080B0300080B0300080B03000836
:100150000B0300080B0300080B0300080B03000847
:100160000B0300080B0300080B0300080B03000837
:100170000B0300080B030008000000000000000053
:100180000B0300080B03000800F002F800F041F830
:100190000AA090E8000C82448344AAF10107DA45E2
:1001A00001D100F036F8AFF2090EBAE80F0013F0F3
:1001B000010F18BFFB1A43F001031847FC59000058
:1001C0001C5A0000103A24BF78C878C1FAD85207E8
:1001D00024BF30C830C144BF04680C6070470000C1
:1001E0000023002400250026103A28BF78C1FBD840
:1001F000520728BF30C148BF0B607047642900F028
:100200005781002070471FB505F0BCF81FBD10B521
:1002100010BD00F0D7FA1146FFF7F5FF03F00AFC16
:1002200000F0F5FA03B4FFF7F2FF03BC00F026FA82
:100230002C4B19680868B0E8F04F80F30988BFF3C9
:100240006F8F4FF0000080F31188704700000000AE
:1002500008480068006880F308884FF0000080F3C9
:10026000148862B661B6BFF34F8FBFF36F8F00DFA4
:1002700000BF00BF08ED00E0DFF80C00016841F4AA
:1002800070010160704700BF88ED00E0EFF3098066
:10029000BFF36F8F134B1A681EF0100F08BF20EDCD
:1002A000108A20E9F04F106009B44FF0500080F33D
:1002B0001188BFF34F8FBFF36F8F04F0E9F94FF050
:1002C000000080F3118809BC19680868B0E8F04F95
:1002D0001EF0100F08BFB0EC108A80F30988BFF33E
:1002E0006F8F704760000020EFF3058070470000BB
:1002F0000948804709480047FEE7FEE7FEE7FEE7BA
:10030000FEE7FEE7FEE7FEE7FEE7FEE704480549F5
:10031000054A064B704700009D3800088901000817
:10032000A0750020A07B0020A0770020A0770020EF
:1003300053EA020C00F069802DE9F04B4FF0000603
:10034000002B1FBFB3FA83F503FA05F424FA05F670
:100350005E4012BF1643B2FA82F502FA05F4C5F107
:1003600020051EBF22FA05FC44EA0C04203556EA9B
:10037000044C4FEA144418BF641C4FF000084FF0BF
:100380000009904271EB030C39D3002919BFB1FA6F
:1003900081F701FA07F6B0FA80F700FA07F6C7F11D
:1003A00020071EBF20FA07FC46EA0C062037B6FBE2
:1003B000F4FCA7EB0507103F07F01F0BCBF120065D
:1003C0000CFA0BFB2CFA06F644BFB3460026202F8E
:1003D000A4BF5E464FF0000B5BEA060C08BF4FF06F
:1003E000010B19EB0B09ABFB027C48EB0608C01BA9
:1003F00006FB02CC0BFB03CC71EB0C01C1E70B46F7
:10040000024641464846BDE8F08B13B54FF0000068
:100410004FF00001AFF30080BDE81C4070470000C2
:100420000FB41CB5074B06AA7B446946009005989B
:1004300000F08BF90020694600F09AF91CBC5DF8C9
:1004400014FB0000450300002DE9F0410E46044670
:10045000002020622046E168884730B3252805D077
:10046000D4E901219047206A401CF2E7E168204668
:1004700000278847050018D0A5F14100192802D8A7
:1004800020354FF400673246294620462760FFF7A3
:10049000B5FE40B1012804D0F61D26F00706083647
:1004A000D8E7361DD6E72846DAE7206ABDE8F081AE
:1004B0002DE9F0410646002410687529314616A53D
:1004C00011D0AFF30080002803DAC0F1000013A5BB
:1004D00007E031688A0701D511A502E0490704D574
:1004E00010A5012401E0AFF3008000210A2306F1EA
:1004F000240707E0B0FBF3F203FB1200303078541E
:100500001046491C0028F5D123462A463046BDE84E
:10051000F04100F0B9B80000000000002D0000001C
:100520002B00000020000000002000F026F9FFF75B
:100530006EFE012000F0A2F8032A40F2308010F095
:10054000030C00F0158011F8013BBCF1020F62446E
:1005500098BF11F801CB00F8013B38BF11F8013BFF
:10056000A2F1040298BF00F801CB38BF00F8013BAC
:1005700011F0030300F02580083AC0F0088051F81C
:10058000043B083A51F804CBA0E80810F5E7121D27
:100590005CBF51F8043B40F8043BAFF30080D20746
:1005A00024BF11F8013B11F801CB48BF11F8012B12
:1005B00024BF00F8013B00F801CB48BF00F8012B35
:1005C000704710B5203AC0F00B80B1E81850203ABF
:1005D000A0E81850B1E81850A0E81850BFF4F5AFE3
:1005E0005FEA027C24BFB1E81850A0E8185044BF6D
:1005F00018C918C0BDE810405FEA827C24BF51F8DA
:10060000043B40F8043B08BF7047D20728BF31F8CD
:10061000023B48BF11F8012B28BF20F8023B48BF1E
:1006200000F8012B70474FF0000200B513469446C6
:100630009646203922BFA0E80C50A0E80C50B1F13A
:100640002001BFF4F7AF090728BFA0E80C5048BF4E
:100650000CC05DF804EB890028BF40F8042B08BFEC
:10066000704748BF20F8022B11F0804F18BF00F8E8
:10067000012B7047704770477047000001491820F0
:10068000ABBEFEE7260002002DE9F0470D46994675
:100690009246044600F124080168880604D5E06902
:1006A00021F01001216000E00120A84202DDA0EB52
:1006B000050700E00027A16907EB050202EB09002E
:1006C000A1EB0000A0612078C00602D42046AFF361
:1006D0000080002608E0D4E901211AF806009047BE
:1006E000206A401C761C20624E45F4DB2078C00650
:1006F0000AD52046AFF3008006E0D4E9012130207E
:100700009047206A401C2062381EA7F10107F4DCE4
:1007100007E0D4E9012118F805009047206A401C41
:100720002062281EA5F10105F3DC2046AFF300800E
:100730002078000602D50220BDE8F0870120FBE703
:1007400001694A1C02610878704700B58FB0CDE995
:1007500001310021059105497944CDE90310114685
:100760006846FFF771FE0FB000BD0000E5FFFFFF18
:100770000A6802F8010B0A60704710B500F00AF829
:10078000BDE8104000F001B87047002801D0FFF725
:1007900075BF704710B5002102A000F03EF801209F
:1007A00010BD0000534947414252543A2041626E05
:1007B0006F726D616C207465726D696E6174696FC2
:1007C0006E000000754600F049F8AE460500694627
:1007D000534620F00700854618B020B5FFF796FD78
:1007E000BDE820404FF000064FF000074FF0000832
:1007F0004FF0000B21F00701AC46ACE8C009ACE8B3
:10080000C009ACE8C009ACE8C0098D467047044691
:10081000AFF300802046FFF705FD70B505460C4696
:100820000A2000E06D1C00F011F835B1287800288E
:10083000F8D102E0641C00F009F814B12078002817
:10084000F8D1BDE870400A20AFF3008008B56946D2
:100850008DF800000320ABBE08BD000000487047C3
:100860003C75002010B50146806B026C12F0500FF1
:1008700005D0026CD20626D500F0EDFA10BD016C51
:1008800041F40071016401688A6812F0405F17D179
:10089000027EAAB9CA6A12F4700F02D08A685205A1
:1008A0000ED44A6822F020024A60016C21F4807163
:1008B0000164016CC90403D4016C41F001010164BD
:1008C00000F0B8FA10BD806BC26CBDE8104008465D
:1008D000104710B5806B40210164416C41F0040168
:1008E000416400F0B8FA10BD10B5806B00F0B2FAA8
:1008F00010BD0000464910B54A6822F440324A60F3
:100900004A6843681A434A6001684A6822F4807260
:100910004A6001684A68036942EA03224A60016842
:100920004A6822F040724A6001684A6883681A4344
:100930004A6001688A6822F400628A6001688A68F5
:10094000C3681A438A60334A816A914201688A689F
:1009500022F070628A6001688A680CD0836A1A4348
:100960008A6001688A6822F040528A6001688A6859
:10097000C36A1A4301E022F040528A6001688A6823
:1009800022F002028A6001688A68037E42EA43021A
:100990008A6090F82010002901684A680FD042F45C
:1009A00000624A6001684A6822F460424A60016855
:1009B0004A68194C436A04EB43331A4301E022F4BA
:1009C00000624A600168CA6A22F47002CA62016861
:1009D000CA6A838B114C04EB03531A43CA62016841
:1009E0008A6822F400728A6001688A6890F8303060
:1009F00042EA43228A6001688A6822F480628A603F
:100A000001688A68406942EA8020886010BD000061
:100A1000002301400100000F00E0FFFF0000F0FF95
:100A2000FEE70000014800F0A4BC000038010020EF
:100A3000014800F043BF0000940200200168182321
:100A4000CAB2103AB2FBF3F2054B6FF30901032A65
:100A50009B5CC36500D9091D81650846704700008D
:100A6000805B000810B5014600208B698A6A4FF050
:100A7000C07453B1B3F5005F15D072B1012A0CD028
:100A8000022A0AD0032A09D104E01AB1012A06D0A9
:100A9000022A03D1C96AC90100D5012010BDC96A63
:100AA000A142FAD010BD002AF7D0012AF2D0022AC2
:100AB000F3D0032AF3D010BD30B50468256825F4BF
:100AC00080252560046863608368402B036803D039
:100AD00099600068C26030BD9A600068C16030BD36
:100AE0007047022001F0A8B972B6FEE72DE9F34184
:100AF000194D0646287E01282BD0012028764CF27D
:100B00005037384600F0C8F8144C206820F4407084
:100B10002060206840F400702060206840F00100F0
:100B200020600123324601A90D4801F097F86422A4
:100B300000210B4801F000F80028F8D1384600F0F9
:100B4000ABF8216821F00101216000212976BDE880
:100B5000FC810220FBE700002C380020103C024002
:100B600000020020002229B101291AD002291BD03D
:100B70004FF440720E490B6823F440730B600B680E
:100B800013430B600A6822F0F8020A600A68022325
:100B900003EBC00002430A60086840F4803008603C
:100BA00070474FF48072E5E74FF40072E2E700000F
:100BB000103C02401348016889050FD5016821F4F3
:100BC00000710160016841F400610160016821F475
:100BD00000610160016841F400710160016849052C
:100BE0000FD5016821F480610160016841F48051F2
:100BF0000160016821F480510160016841F4806165
:100C000001607047003C024008490A6822F44072C3
:100C10000A600A6842F004020A600A684FF48033EE
:100C200043EA002002430A6070470000103C024083
:100C300017490868C206174805D5C26942F0100274
:100C4000C26110220A600A68920605D5C26942F0A4
:100C50000802C26120220A600A68520605D5C269EC
:100C600042F00402C26140220A600A68120605D5F9
:100C7000C26942F00202C26180220A600A689207D9
:100C800005D5C26942F02002C261022008607047A7
:100C90000C3C02402C38002070B51149044600205D
:100CA000C86101F0DBF906460E4D09E0601C07D073
:100CB00024B101F0D3F9801BA04201D9032070BDFB
:100CC0002868C003F2D42868C00701D0012028603A
:100CD000286810F0F200F2D0FFF7AAFF012070BDE3
:100CE0002C3800200C3C024078B50024009490F889
:100CF0003C20012A19D0012280F83C200A680723F1
:100D00000568092A13D9EE680A3A02EB42029340B9
:100D10009E43EE600B788A680A3B03EB43039A40DC
:100D20000368DD682A43DA6010E0022078BD2E698E
:100D300002EB420293409E432E610B788A6803EBDC
:100D400043039A4003681D692A431A614A681F23B6
:100D5000072A13D205686E6B521E02EB8202934083
:100D60009E436E630B790A885B1E92B203EB83038A
:100D70009A4003685D6B2A435A6327E005680D2A91
:100D800012D22E6BD21F02EB820293409E432E633F
:100D90000B790A88DB1F92B203EB83039A40036846
:100DA0001D6B2A431A6311E0EE6A0D3A02EB8202D0
:100DB00093409E43EE620B790A880D3B92B203EB9F
:100DC00083039A400368DD6A2A43DA62164B05689A
:100DD000144A9D4206D10D68122D03D1556845F481
:100DE0008005556005689D4218D10B68102B01D015
:100DF000112B13D1536843F4000353600968102981
:100E00000CD10A490A4A0968B1FBF2F101EB8101F0
:100E1000490000E0491E00910029FBD180F83C40C8
:100E2000002078BD00230140002001405C0000202C
:100E300040420F0000680549884205D1044832222B
:100E4000816A806902F0E0BE704700000020014026
:100E5000080000207047704770B504004FF000058F
:100E600003D0206C002610B107E0012070BD2046A1
:100E700000F01CF8666484F83C60206CC00610D456
:100E8000206C20F4885040F0020020642046FFF7D8
:100E900031FD6664206C20F0020040F00100206407
:100EA00000E0012584F83C60284670BD70B586B02E
:100EB000064614216846FFF7B6FB1D493068884294
:100EC00034D11C480025016841F48071016000683C
:100ED00000F48070059017481438016841F0010152
:100EE00001600068694600F0010005901020009044
:100EF0000320CDE90105104800F0AAFF104C0F486F
:100F0000C4E900050015A560C4E903504000606114
:100F10008000C4E90605C000C4E90805204600F0C9
:100F2000A1FD08B1FFF7E0FDB463A66306B070BD94
:100F3000002001404438024000000240106402409A
:100F400094020020F8B5044600200E46009094F864
:100F50003C10012907D0012184F83C1021688B68DE
:100F6000DB0702D013E00220F8BD8B6843F00103D9
:100F70008B604149414B0968B1FBF3F101EB410141
:100F800002E000BFA1F1010100910029FAD121681E
:100F90008B68DB0503D58B6823F480738B60216835
:100FA0008B68DB075DD0236C40F20165AB4343F4F3
:100FB000807323644968490505D5216C21F40051EB
:100FC00041F480512164216CC90404D5616C21F085
:100FD0000601616400E0606484F83C00A16B29486C
:100FE000274DC863A16B28480864A16B2748C864D3
:100FF00021686FF0220008602068416841F080613C
:1010000041602068816841F48071816021681346E5
:101010004C313246A06B00F044FE68681C49C006A3
:10102000206806D0884224D1816811F0405F13D037
:101030001FE08842F8D0174A904203D1D1F8042328
:10104000D206F1D0144A904213D1D1F8041301F022
:101050001F011029E8D30CE0816841F080418160D4
:1010600007E0206C40F010002064606C40F001004C
:1010700060640020F8BD00005C00002040420F00CA
:101080000023014065080008E9080008D3080008AB
:1010900000200140002101400022014090F8202062
:1010A000012A07D0022A05D0416A41F48021416219
:1010B00001207047006842690A434261002070477E
:1010C000F0B590F820500468A468012D05D0022DD9
:1010D00003D0416A41F480214DE014F0406F01D10A
:1010E000E50045D5C4F301640125A5401D608D6868
:1010F0004FF4C0739DB1CE6835434E6845EAC605CE
:10110000066803EB0417F5514FF4C275076805EB49
:1011100004150E697E51097D012905D009E00E886C
:10112000CD6845EA4655EBE701684E5946F48076AE
:101130004E511179D2F805504FF4C67641EA052197
:10114000056806EB0416A9511178D2F801204FF476
:10115000C47541EA0221026805EB0415515100688B
:1011600003EB0411425842F0010242500020F0BD4E
:10117000416A41F4001141620120F0BD10B590F8C0
:101180002020012A07D0022A05D0416A41F480219B
:101190004162012010BD3848026842F0010202603D
:1011A000026822F47C52026002684B6A42EA03221F
:1011B00002600A7D02F01F0301229A40C369934333
:1011C000C361CB69A0F50070B3B9D0F80C3293437A
:1011D000C0F80C328C894B6864F31F434C6900EBF8
:1011E000C404C4F840320C890B6864F31F434C6993
:1011F00000EBC404C4F84432CB69012B16D1D0F8FB
:101200000C321343C0F80C320C884B6864F31F4354
:101210004C6900EBC404C4F840320C89CB6864F319
:101220001F434C6900EBC404C4F844328B69002BA3
:10123000D0F804320ED01343C0F804320B69002BEF
:10124000D0F8143208D01343C0F81432096A0129C7
:1012500004D008E09343EFE79343F5E7D0F81C127E
:101260001143C0F81C12D0F8001221F00101C0F89F
:101270000012002010BD000000660040704770B5ED
:1012800090F82040012C05D0022C03D0416A41F493
:10129000802128E0046809B32469A40720D04FF412
:1012A000D874056804EB01142D5915F004059560F8
:1012B00005682D591AD0ED08556005682C5904F0C1
:1012C0000204D4604FF4DA74056804EB01142E595B
:1012D00006F00F06082E0CD308250DE0E468DCE7C5
:1012E000416A41F400114162012070BD6D0D15602D
:1012F000E3E72D5905F00F05156105682D59C5F374
:101300000725956105682C59240C54614FF4DC7253
:10131000046802EB0112A4581C700468A458240A43
:101320005C700468A458240C9C700468A258120EC7
:10133000DA704FF4DE72046802EB0112A4581C71DB
:101340000468A458240A5C710468A458240C9C7195
:101350000468A258120EDA71006829B1016941F0DF
:1013600020010161002070BDC16841F02001C16011
:10137000F8E72DE9F05F0546006800244669D0F8DB
:1013800004908768D0F80CB0D0F810A0D0F818807E
:10139000F10748D0F90714D001218160B80703D5BF
:1013A000284600F03EFA0CE0780702D54FF40064BE
:1013B00007E0380702D54FF4805402E0284600F0D9
:1013C0002FFAF80516D529684FF480708860B805A3
:1013D00003D5284600F027FA0CE0780502D544F43E
:1013E000005407E0380502D544F4804402E0284662
:1013F00000F018FAF80316D529684FF48030886099
:10140000B80303D5284600F010FA0CE0780302D5A3
:1014100044F4004407E0380302D544F4803402E089
:10142000284600F001FA300707D55FEACB6004D503
:101430002968102044F40074C86070074FF0080752
:1014400007D55FEA0B7004D52868C760284600F00E
:101450008DF9B00706D52868C068800702D02846F5
:1014600000F086F9700607D55FEACA6004D52968DE
:10147000102044F480640861B00607D55FEA0A7062
:1014800004D528680761284600F09AF9F00606D5C9
:1014900028680069800702D0284600F092F9B0035E
:1014A00008D55FEAC96005D529681020486028463C
:1014B00000F088F9F00307D55FEA097004D52868C1
:1014C0004760284600F0B2F9300446D55FEA49701B
:1014D00040D5F00504D55FEAC87001D044F001049E
:1014E000B00504D55FEA887001D544F002047005A8
:1014F00004D55FEA487001D544F00404300529D5CD
:1015000018F0700F26D008F07000402815D006DCC7
:10151000102809D020280AD0302816D10AE05028F7
:101520000ED0602811D10EE044F008040DE044F024
:1015300010040AE044F0200407E044F0400404E012
:1015400044F0800401E044F480742868816921F04B
:1015500070018161296804204860002C05D0686A08
:10156000204368622846FFF789FEBDE8F09F70B50A
:10157000040003D094F8200010B104E0012070BDF5
:10158000204600F081F82068016841F00101016007
:1015900000F064FD0546052604E000F05FFD401BF9
:1015A0000A2811D820684068C007F6D02068016872
:1015B00021F00201016000F051FD05460BE000F052
:1015C0004DFD401B0A2806D9606A40F40030606275
:1015D00084F82060D2E7206840688007EFD4207E3E
:1015E0000128206801683DD021F080010160607E03
:1015F00001282068016838D021F040010160A07EF8
:1016000001282068016833D021F020010160E07ECC
:101610000128206801682ED041F010010160207F70
:1016200001282068016829D021F008010160607F4D
:1016300001282068016824D021F004010160D4E968
:1016400002010843D4E90412114308436168491EAA
:1016500008432168C86100206062012084F82000EE
:10166000002070BD41F08001C0E741F04001C5E7B6
:1016700041F02001CAE721F01001CFE741F0080155
:10168000D4E741F00401D9E7F0B587B0044614214E
:101690006846FEF7C8FF27682F4C3048DFF8B4C013
:1016A000216801252D4A02230926491C103067456F
:1016B0001ED12160012907D1016841F0007101604C
:1016C000006800F000700590106840F001001060A4
:1016D0001068694600F0010005904FF4C0508DE895
:1016E0002900CDE903361E4800F0B2FB07B0F0BD7B
:1016F000DFF870C06745F9D1076847F08067076079
:101700000768012907F080670597216007D1016804
:1017100041F000710160006800F0007005901068F1
:1017200040F0020010601068694600F00200059069
:1017300060208DE82900CDE903360B4800F088FBD6
:1017400000220521402000F027FD402000F016FD7A
:10175000CCE70000006400404C000020303802401C
:101760000000024000680040000402407047000092
:1017700070B505460F4C0220014620700E4800F05F
:101780005FFC04F13C030D4A00212846FFF777FD7A
:1017900004F13C0032220178407801EB002081B254
:1017A0006180E06902F030FA606ABDE8704002F0E2
:1017B00079BA0000080000200004024078020020EE
:1017C000704770477047000070B5044690F82000DD
:1017D000012804D0606A40F40020606218E0022012
:1017E00084F820002068016821F00101016000F008
:1017F00035FC05460EE000BF00F030FC401B0A2817
:1018000008D9606A40F400306062052084F8200046
:10181000012070BD20684068C007EDD1606270BDD6
:1018200070477047704770477047704770472DE9A1
:10183000F0410446876D00F011FC064694F835002F
:101840000025022806D08020606584F834500120ED
:10185000BDE8F0812068016821F016010160206870
:10186000416921F080014161206C08B9A06C20B170
:101870002068016821F0080101602068016821F0FA
:10188000010101600BE000F0E9FB801B052806D98F
:10189000202034342062032060702570D8E720684F
:1018A0000068C007EFD134343F2094F828108840F6
:1018B000B8600120607025700020C9E72DE9F84369
:1018C00004464FF00009CDF8009065484FF41651DA
:1018D000A56D0068B0FBF1F72E6894F85C10082045
:1018E00000FA01F1314210D021680A6852070CD584
:1018F0000A6822F004020A6094F85C1000FA01F011
:10190000A860606D40F00100606594F85C104FF0D5
:10191000010808FA01F0304208D021684969090637
:1019200004D5A860606D40F00200606594F85C101A
:10193000042000FA01F0304208D0216809688907C4
:1019400004D5A860606D40F00400606594F85C10F8
:10195000102000FA01F0304218D021680968090708
:1019600014D5A86020680168490304D50068000305
:1019700008D5A16C07E00168C90503D4016821F00E
:1019800008010160216C09B12046884794F85C1079
:10199000202000FA01F0304231D021680968C906E0
:1019A0002DD5A86094F8350005282068016806D078
:1019B000490347D5006800031DD4616C1CE021F089
:1019C000160101602068416921F080014161206CAD
:1019D00008B9A06C20B12068016821F008010160FD
:1019E00094F85C103F208840A86084F8358084F823
:1019F0003490216D1FE0E16B09B120468847606D8E
:101A000000282BD0606DC00714D0052084F8350065
:101A10002068016821F0010101600098401C0090DD
:101A2000B84203D820680068C007F6D184F8358032
:101A300084F83490E16C002910D001B02046BDE854
:101A4000F04308470168C905D5D4016821F01001A9
:101A5000016084F8358084F83490CCE7BDE8F883E1
:101A60005C0000202DE9F041044600F0F7FA06463C
:101A70005CB1022084F83500002584F834502068D9
:101A8000016821F0010101600DE00120BDE8F08155
:101A900000F0E4FA801B052805D9202060650320AA
:101AA00084F83500F2E720680068C007F0D12268AA
:101AB000116820480140D4E901031843D4E90336F2
:101AC0003343184363691843A3691843E369184310
:101AD000236A18430843616A042903D1D4E90B132C
:101AE00019430843106020684069666A20F00701C6
:101AF00030460E43012704280CD1A06A0643E06A51
:101B000040B12046FEF7AEFF20B14020606584F86A
:101B10003570BAE7206846612046FEF78FFF94F8DB
:101B20005C203F2191408160656584F8357000201C
:101B3000ACE700003F8010F02DE9F74F82B004467B
:101B400000208946019000F089FA009094F8350051
:101B50000027022804D08020606584F8347068E093
:101B600020680068C00503D54FF48070606560E0B0
:101B700094F85C004FF0200B4FF0100AB9F1000F01
:101B800006D00AFA00F6A56D28684FF001083AE081
:101B90000BFA00F6F7E70498401C12D0049830B115
:101BA00000F05CFA0099411A0498814209D9343452
:101BB000C4F820B084F801802770032005B0BDE888
:101BC000F08F286894F85C2008219140014204D0ED
:101BD000626D42F001026265A96094F85C2008FA27
:101BE00002F1014204D0626D42F002026265A96016
:101BF00094F85C2004219140014204D0626D42F0CF
:101C000004026265A960304202D1606DC007C2D093
:101C1000606D302678B1606DC0070CD02046FFF7AC
:101C200006FE343494F828008640AE6084F80180C3
:101C300027700120C2E7B9F1000F06D094F85C10BC
:101C40000AFA01F0A8600198B8E7343494F8280043
:101C50008640AE6084F801802770F4E770B50446D2
:101C600090F83400002501280CD0012084F83400BD
:101C700094F835600020012E06D084F83400022547
:101C8000284670BD022070BD022684F8356060656C
:101C90002046FEF711FF2068016841F00101016054
:101CA000EEE72DE9F0410446866D90F834000025FA
:101CB00001280DD0012084F8340094F835700020FC
:101CC000012F07D084F8340002252846BDE8F081B2
:101CD0000220FBE7022784F8357060652046FEF796
:101CE000EBFE94F85C103F208840B06020680168EB
:101CF00041F016010160206C20B12068016841F0BC
:101D0000080101602068016841F001010160DCE721
:101D100070B5044600F0A2F90546601C02D00448E4
:101D20000078044400F09AF9401BA042FAD370BD39
:101D3000500000202DE9F047044622480F46017E5E
:101D400001290AD00121804601764CF250394846DB
:101D5000FEF7A2FF020003D02FE00220BDE8F087CB
:101D60004FF0FF3038602068174D012801D0A66879
:101D70001CE0207C6168FEF747FF4846FEF78CFFB9
:101D80000246286820F00400286014E0217C3046D8
:101D9000FEF7E8FE4846FEF77FFF0200286820F0C5
:101DA000FA00286001D03E6005E0761CD4E90210FC
:101DB0000844B042EAD8FEF7FDFE002188F818106A
:101DC0001046CBE72C380020103C02400348016845
:101DD00041F000410160002070470000103C0240CB
:101DE000074900200A68002A09DA054A054B0C3A1F
:101DF0001360054B13600968002900DA0120704761
:101E0000103C024023016745AB89EFCD10B5044675
:101E100000F024F90749022C886009D14A68821A27
:101E2000642A05D94860086ABDE8104001F03ABF4D
:101E300010BD000008000020044910B50A680242E5
:101E400002D00860FFF7E2FF10BD0000143C014023
:101E50002DE9F84FDFF8BCA10022012503264FF041
:101E60000F090AF1040BAAF1040E00BF0B6805FA72
:101E700002F42340A34270D10F7907F00307012F2A
:101E800001D0022F16D187684FEA420806FA08FCF3
:101E900027EA0C07D1F80CC00CFA08FC4CEA070C36
:101EA000C0F808C04768A7430C79C4F300149440F5
:101EB0003C4344600C79E443A4070AD0C4684FEA69
:101EC000420C06FA0CF7BC438F6807FA0CF727435D
:101ED000C7600C7904F00304022C10D1D40800EB85
:101EE0008407B8463F6A54074FEAD46C09FA0CF4E9
:101EF000A7430C6904FA0CF43C43C8F8204004687A
:101F0000570006FA07FC24EA0C0491F804C00CF010
:101F1000030C0CFA07FC4CEA040CC0F800C04C6837
:101F200014F4403F6FD03C4C276847F4804727604B
:101F3000246822F0030704F480440094374C3C44A6
:101F4000A046276894074FEA147C09FA0CF4A743CB
:101F5000334CA04202D1002424E054E0314CA04292
:101F600001D101241EE0304CA04201D1022419E02D
:101F70002E4CA04201D1032414E02D4CA04201D1EB
:101F800004240FE02B4CA04201D105240AE02A4C86
:101F9000A04201D1062405E0284CA04201D107242B
:101FA00000E0082404FA0CF43C43C8F80040DAF8D6
:101FB00000405746D1F804C09C435FEACC2C00D5C2
:101FC0001C433C60DBF800405F46D1F804C09C43F2
:101FD0005FEA8C2C00D51C433C60DEF8004077465D
:101FE000D1F804C09C435FEA8C3C00D51C433C60A4
:101FF000084F083F3C68D1F804C09C435FEACC3CE2
:1020000000D51C433C60521C102AFFF42FAFBDE8E2
:10201000F88F0000083C0140443802400838014075
:10202000000002400004024000080240000C024090
:10203000001002400014024000180240001C024040
:10204000426921EA02030A4043EA02418161704782
:102050000AB1816170470904FBE70000014880680C
:102060007047000050000020024881680278114447
:1020700081607047500000200B4810B5016841F4A2
:1020800000710160016841F480610160016841F400
:1020900080710160032000F09FF80F2000F006F827
:1020A00000F050F8002010BD003C024030B505465D
:1020B000204887B00024016841F0010101600068F8
:1020C00006A900F00100009001A800F031F9049881
:1020D000B0B100F04DF9400017494FF08042B0FB1D
:1020E000F1F11648491E026040F2E732C0E90324CC
:1020F000C0E90114846100F0CFFC040003D015E0B6
:1021000000F036F9E8E70D4800F008FD04000DD1B5
:102110001C2000F033F8102D07D2002229461C2085
:1021200000F03AF80648056000E0012407B02046B8
:1021300030BD00004038024040420F00E43700202C
:10214000540000200C4882B0016841F480410160D5
:10215000006800F4804000900748001F016841F0CB
:10216000805101600068002200F0805000900F2133
:10217000901E02B000F010B84438024000280ADB7C
:1021800000F01F020121914040094FF0E02202EBD4
:102190008000C0F800117047F0B40E4B1B680C466D
:1021A000C3F30223C3F10705042D00D90425191D2B
:1021B000072901D2002300E0DB1E012606FA05F103
:1021C000491E214099409E40761E16403143F0BC86
:1021D00001F01ABC0CED00E0064900F007020868A7
:1021E0004FF6FF03184040EA0220034A10430860FC
:1021F000704700000CED00E00000FA052DE9F04703
:102200000E46050065D0DFF81481D8F80000F7B25B
:1022100000F00700B04207D288F80070D8F800003C
:1022200000F00700B04254D128683D4C810712D518
:10223000400703D5206840F4E0502060287800076C
:1022400003D5206840F4604020602068A96820F031
:10225000F000084320602878C0072DD03049686816
:102260000839012812D0022813D0032811D0096898
:10227000890700292DDA216821F00301014321603B
:10228000FFF7ECFE814641F2883A0EE009688903C7
:10229000EFE709688901ECE7FFF7E0FEA0EB090131
:1022A000514502D90320BDE8F0872068696800F035
:1022B0000C00B0EB810FEFD1D8F80010404601F0D0
:1022C0000701B14207D90770006800F00700B0426B
:1022D00001D00120E7E72878400705D52068E968A4
:1022E00020F4E050084320602878000706D52068D5
:1022F000296920F4604040EAC100206000F048F8FD
:102300002168084AC1F30311515CC84006490860BE
:1023100006480068FFF7CAFE0020C4E7003C024000
:1023200008380240885B00085C0000205400002050
:102330000F2202600C4A136803F003034360136822
:1023400003F0F0038360136803F4E053C360126882
:102350004FF4E05303EAD20202610448006800F03F
:10236000070008607047000008380240003C024047
:102370000448054900680968044AC1F38221515C98
:10238000C84070475C00002008380240985B000895
:10239000154810B5006810F00C02144813D0144909
:1023A000042A0FD0082A0ED10F4C241F226823685C
:1023B00002F03F025B0207D52068C0F38810A0FB43
:1023C000010106E0084610BD2168C1F38811A1FB98
:1023D00000010023FDF7ACFF2168C1F30141491C56
:1023E0004900B0FBF1F010BD083802400024F400B1
:1023F00040787D012DE9F84F04006ED02078DFF899
:102400004C93C007A9F104054AD009F10400016802
:10241000C1F38101012908D00068C0F381000228BE
:102420000AD1D9F80000400206D52868800337D5C4
:1024300060680028E1D033E06068B0F5803F10D0DC
:10244000B0F5A02F286810D020F4803028602868CC
:1024500020F4802028606068A8B1FFF7FFFD0646E1
:102460000DE0286840F48030F4E740F480202860D4
:10247000F7E700BFFFF7F2FD801B642873D82868D8
:102480008003F7D50CE0FFF7E9FD064605E000BF45
:10249000FFF7E4FD801B6428F0D828688003F7D498
:1024A0002078DFF8AC8280074FF0000A3ED5A748BD
:1024B000001D016811F00C0F08D00068C0F3810006
:1024C00002280BD1D9F80000400207D42868800701
:1024D00016D5E068012800D112E033E1E068B8B118
:1024E0000120C8F80000FFF7B9FD064605E000BF6F
:1024F000FFF7B4FD801B0228C0D828688007F7D5F5
:102500002868216920F0F80040EAC10028600DE049
:10251000C8F800A0FFF7A2FD064604E0FFF79EFD05
:10252000801B0228AAD828688007F7D420780007E3
:1025300022D5864F87486169703771B101210160EA
:10254000FFF78CFD064604E0FFF788FD801B02289C
:1025500009D838688007F7D50EE0C0F800A0FFF76B
:102560007DFD064605E083E0FFF778FD801B02282D
:102570007ED838688007F7D42078400769D5DFF81F
:10258000CCB100270BF13C0BDBF80000C0000BD4F2
:10259000DBF8001041F08051CBF80010DBF80000B0
:1025A000012700F0805000906B4E3068C00510D4B9
:1025B000306840F480703060FFF750FD009005E017
:1025C000FFF74CFD0099401A022851D83068C00529
:1025D000F6D55E4EA0686C3601280FD0052830680D
:1025E00010D020F001003060306820F0040030602E
:1025F000A068B8B1FFF732FD00900FE0306840F0FE
:102600000100F4E740F004003060F7E7FFF726FD33
:102610000099411A41F28830814266D830688007BB
:10262000F4D50EE0FFF71AFD009007E0FFF716FD66
:102630000099411A41F28830814256D830688007AB
:10264000F4D4012F05D1DBF8001021F08051CBF834
:102650000010A069C0B33D49091D0968C1F381019B
:10266000022949D00228504607D0C8F8600000E08F
:102670003BE0FFF7F3FC04463AE04746C8F8600049
:10268000FFF7ECFC064604E0FFF7E8FC801B02289D
:102690002BD828688001F7D4D4E907010843A16A40
:1026A0002E4A490802EB0141626A41EA821108435D
:1026B00094F82C1040EA0161C9F800100120386636
:1026C000FFF7CCFC044606E03EE000BFFFF7C6FC87
:1026D000001B022809D828688001F7D534E000BF24
:1026E000FFF7BCFC001B022802D90320BDE8F88FCD
:1026F00028688001F4D427E00128F7D0D9F8000039
:10270000E26900F4800191421CD1226A00F03F018D
:10271000914217D147F6C071626A0140B1EB821F46
:1027200010D1A26A4FF0FF3300F4403103EB5202A4
:10273000B1EB024F06D194F82C1000F07060B0EBB2
:10274000016F01D00120D1E70020CFE7043802401B
:1027500000004742800E4742007000400000FFFF2B
:1027600070B5040009D0606A002540B1256165613B
:10277000A56294F8510040B10CE0012070BD606882
:10278000B0F5827FF4D0E561F2E784F8505020463E
:1027900000F044F8022084F851002068016821F01C
:1027A00040010160A088218900F4827001F4044195
:1027B0000843A18901F400610843217C01F0020172
:1027C0000843217D01F001010843218B01F40071D0
:1027D0000843217F01F03801084394F8201001F0EC
:1027E00080010843218D01F40051084321680860ED
:1027F000A069042101EA104094F8241001F01001AE
:102800000843216848602068C16921F40061C16102
:102810006565012084F85100002070BDF0B587B0D7
:10282000044614216846FDF7FEFE194920688842D7
:102830002CD11848016841F480510160006800F40F
:102840008050059013481438016841F0010101607F
:10285000016801F001010591016841F00201016088
:102860000068022400F002000590C0200125032624
:1028700005278DE8F10069460748FFF7E9FA0820C7
:102880008DE8F10069460548FFF7E2FA07B0F0BDB0
:102890000030014044380240000002400004024081
:1028A0002DE9F84F984616468A460446FFF7D6FBB0
:1028B000814694F8510001281ED1BAF1000F73D05F
:1028C000002E71D094F85000012815D0012784F80B
:1028D0005070032084F8510000256565C4F830A0CD
:1028E000A686E686A563A587E58765642564A06856
:1028F000B0F5004F03D00CE00220BDE8F88F20684F
:10290000016821F0400101602068016841F48041C4
:10291000016020680168490603D4016841F0400164
:102920000160E068B0F5006F606803D048B3012E25
:1029300027D047E008B1012E1FD1206B2168008805
:10294000C86006E020688168890709D5216B09887D
:10295000C160206B801C2063E08E401EE0860CE08E
:10296000FFF77CFBA0EB0901414503D318F10100FF
:1029700003D035E0B8F1000F32D0E08E0028E1D16D
:1029800023E0206B21680078087306E020688168E6
:1029900089070AD5216B09780173206B401C2063DD
:1029A000E08E401EE0860DE029E0FFF757FBA0EB2C
:1029B0000901414503D318F1010003D010E0B8F13B
:1029C000000F0DD0E08E0028E0D14A464146204657
:1029D00000F08EFB08B120206065A06828B108E0F7
:1029E000503467702570032087E72068C1688068CD
:1029F000009050346770257060680028F4D0012082
:102A00007BE770477047000070B590F83C20012AC2
:102A100031D0012480F83C40022280F83D20036838
:102A20005A689D6822F070060A6832435A60134B58
:102A300002689A4214D0B2F1804F11D0104B9A42E2
:102A40000ED0104B9A420BD00F4B9A4208D00F4B2E
:102A50009A4205D00E4B9A4202D00E4B9A4204D1B4
:102A6000496825F08003194391603C30447000218F
:102A70000170084670BD022070BD000000000140DA
:102A80000004004000080040000C00400004014029
:102A9000004001400018004010B5040003D094F835
:102AA0003D0010B107E0012010BD002084F83C007B
:102AB000204600F015F8022084F83D00211D206812
:102AC00000F000FF01203D3460726070A070E07083
:102AD00020716071A071E07120722070002010BD23
:102AE00008B500680B49884212D10B48016841F0D3
:102AF000040101600068002200F00400009005213C
:102B00001E20FFF749FBBDE808401E20FFF736BB3B
:102B100008BD0000000800404038024090F83D1019
:102B2000012901D001207047022180F83D10016881
:102B3000CA6842F00102CA6000681149884214D094
:102B4000B0F1804F11D00F4988420ED00E49884213
:102B50000BD00E49884208D00D49884205D00D4956
:102B6000884202D00C49884204D1816801F00701F3
:102B7000062903D0016841F001010160002070477F
:102B8000000001400004004000080040000C00402C
:102B900000040140004001400018004070B50446A8
:102BA00090F83C000025012817D0012684F83C60ED
:102BB000022084F83D002068826822F0770222F427
:102BC0007F4282600868502837D00DDC20284ED024
:102BD00005DC88B3102811D149E0022070BD3028EF
:102BE00045D040280AD13AE060282ED070280CD079
:102BF000B0F5805F03D0B0F5005F11D001253C3403
:102C0000667000202070284670BD4A680831206830
:102C10000AC900F0C3FE2068816841F0770109E02D
:102C20004A68083120680AC900F0B8FE2068816847
:102C300041F480418160E2E719E0CA684968206890
:102C400000F0BEFE5021206806E0CA68496820688E
:102C500000F0C7FE6021206800F0AAFECFE7CA6836
:102C60004968206800F0ACFE40212068F4E7226843
:102C700001461046F0E770472DE9F0410446006830
:102C8000C66805694FF00007A90713D5B10711D52C
:102C9000F91E0161012020772068806980072046A5
:102CA00002D0FFF7E8FF04E000F07EF8204600F0D5
:102CB0007CF82777680716D5700714D521686FF060
:102CC00004000861022020772068806910F4407FAA
:102CD000204602D0FFF7CFFF04E000F065F8204661
:102CE00000F063F82777280715D5300713D521683A
:102CF0006FF008000861042020772068C069800711
:102D0000204602D0FFF7B7FF04E000F04DF8204660
:102D100000F04BF82777E80616D5F00614D52168A1
:102D20006FF010000861082020772068C06910F457
:102D3000407F204602D0FFF79EFF04E000F034F809
:102D4000204600F032F82777E80708D0F00706D0D1
:102D500021686FF001000861204600F027F828067E
:102D600008D5300606D521686FF08000086120463E
:102D7000FFF747FE680608D5700606D521686FF094
:102D800040000861204600F02BF8A8060AD5B006DE
:102D900008D521686FF0200008612046BDE8F041A9
:102DA000FFF730BEBDE8F0817047704710B50446AC
:102DB0000068B0F1804F01D1FFF756F9054920684E
:102DC000884206D1BDE81040012203490348FEF7BE
:102DD000B9B810BD0008004030000020C800002035
:102DE0007047FEE77FB500241448009401940294D4
:102DF00011490394C0E9001484600461047680F8EA
:102E000020400F49C0E90A140125C561C46080F85B
:102E100030404561FEF720F808B172B6FEE70420A5
:102E2000CDE90005694602940448FDF75DFF0028DE
:102E300001D072B6FEE77FBD00200140C80000202F
:102E40000100000F10B517488AB015490160022132
:102E50000024C0E901144FF4A021C0E903414FF45C
:102E6000E0014161047644768476C4760477447741
:102E7000FEF77DFB08B172B6FEE7012001940294D3
:102E8000CDE906400394089004940C200594099021
:102E9000009469460348FEF771F90AB010BD0000BE
:102EA000006400401001002010B51B488CB0194987
:102EB000016002210024C0E901144FF4A021C0E9FF
:102EC00003414FF4E0014161047644768476C47690
:102ED00004774477FEF74BFB08B172B6FEE70F4864
:102EE000016841F08061016000680E2100F080609F
:102EF0000A900120CDE9044101940294CDE90640F5
:102F000008900094694603940348FEF737F90CB023
:102F100010BD000000680040380100204038024029
:102F2000184808B50268002142F480020260006877
:102F3000154A00F4800000901448C0E90021802266
:102F400082609200C260520002619200426192006F
:102F5000C0E90621D2000262042242620322C0E9D3
:102F60000A210163FEF77EFD08B172B6FEE700227A
:102F700005213820FFF710F9BDE808403820FFF799
:102F8000FDB80000303802402864024000020020F2
:102F9000F0B587B014216846FDF745FB24480024AE
:102FA000016841F000710160016801F00071059154
:102FB000016841F080610160006800F08060059068
:102FC0001B481038016841F001010160016801F0FF
:102FD00001010591016841F0020101600068154F8F
:102FE00000F0020040F28716059000223146384674
:102FF000FFF72EF8022000904FF404100125CDE9D0
:10300000010569460C48FEF723FF0096CDE90154FF
:10301000694638460394FEF71BFF0022052107206E
:10302000FFF7BAF80720FFF7A9F807B0F0BD0000D6
:103030004038024000040240000002400F4810B532
:103040000D4901604FF48271416000218160C160CF
:103050004FF400720161C0E905120822C0E907219E
:10306000416281620A21C162FFF77AFB002801D028
:1030700072B6FEE710BD0000003001406001002084
:1030800010B586B00024184800940194029403946B
:10309000049414490594016040F25721C0E90114D9
:1030A0004CF25031C0E9031480218161FFF7F4FC38
:1030B00008B172B6FEE74FF48050009069460A48A6
:1030C000FFF76CFD08B172B6FEE7049404A9064848
:1030D0000594FFF799FC002801D072B6FEE706B010
:1030E00010BD000000080040B8010020FEE7FEE728
:1030F000F8B515460E460B46009204460122022101
:1031000000F02EF8A0B9144814490068B0FBF1F0A3
:103110004FF47A71484300906068B0F5827F0DD11A
:103120003346002280212046009500F019F880B136
:10313000606D40F0200060650320F8BD009840B14C
:10314000A0F101000090206880686FEA000000068E
:10315000F4D50020F8BD00005C00002000366E01B0
:103160002DE9F8431E46914688460446089DFEF721
:1031700075FF401B351AFEF771FF074625480068AA
:10318000C0F3CB30684337E0701C36D0FEF766FFE3
:10319000C01BA84203D215B1009858B32BE0206899
:1031A000416821F0E00141606068B0F5827F0BD199
:1031B000A068B0F5004F02D0B0F5806F04D1206850
:1031C000016821F040010160A06AB0F5005F09D1FB
:1031D0002068016821F4005101602068016841F411
:1031E00000510160012050346070002020700320E5
:1031F000BDE8F8830025401E00902068816838EA09
:10320000010004D000214945BED10020F0E7012192
:10321000F9E700005C0000202DE9F843DFF8589042
:103220000546002280214846FEF712FF002140F2A9
:103230003F13EF22084600F0E3F800242E0AEFB215
:103240004FF4A0785FF000058DF800608DF80170F4
:103250000221684600F09EF96D1CADB24545F3D3DE
:10326000641CA4B2F02CEDD34846BDE8F84301221B
:103270008021FEF7EDBE0000000402401FB50A20C9
:10328000FEF746FD534C012204212046FEF7E0FEE6
:10329000002280212046FEF7DBFE0122402120464D
:1032A000FEF7D6FE012204212046FEF7D1FE0520BE
:1032B000FEF72EFD002204212046FEF7C9FE052060
:1032C000FEF726FD012204212046FEF7C1FE05205F
:1032D000FEF71EFD112000F03FF90A20FEF718FD51
:1032E000362000F039F9002000F086F93A2000F08D
:1032F00033F9052000F080F9B22000F02DF936A155
:10330000D1E90001CDE900010521684600F042F94C
:10331000022000F0B1F8B72000F01EF9352000F0CF
:103320006BF9BB2000F018F9282000F065F9C020E7
:1033300000F012F93C2000F05FF9C22000F00CF917
:10334000012000F059F9C32000F006F90B2000F02D
:1033500053F9C42000F000F9202000F04DF9C620F8
:1033600000F0FAF80F2000F047F9D02000F0F4F850
:10337000A42000F041F9A12000F03EF9E02000F087
:10338000EBF817A090E80E00C06803908DE80E00DF
:103390000E21684600F0FEF8E12000F0DDF814A1EF
:1033A000D1E90002D1E90231CDE90231CDE90002D3
:1033B0000E21684600F0EEF8292000F0CDF832200A
:1033C000FEF7A6FC04B04FF6FF70BDE81040FFF713
:1033D00023BF0000000402400C0C00333300000047
:1033E000D001080F112A3655443A0B06112000006F
:1033F000D002070A0B1834434A2B1B1C221F000063
:103400002DE9F843DFF86C8015460E4607461C464A
:10341000002280214046FEF71BFE2A2000F09CF887
:10342000380A8DF800008DF80170280A8DF8020026
:103430008DF803500421684600F0ACF82B2000F012
:103440008BF8300A8DF800008DF80160200A8DF8A5
:1034500002008DF803400421684600F09BF82C2000
:1034600000F07AF84046BDE8F84301228021FEF7DB
:10347000EFBD00000004024010B50446362000F005
:103480006BF854B1012C0AD0022C0AD0032C0AD1BB
:103490006020BDE8104000F0AFB8C020F9E7A020E0
:1034A000F7E70020F5E710BD0FB42DE9FF5F0C46EC
:1034B000DDE913A905461F46002280212548FEF7B5
:1034C000C7FDC7F30726601E304483B2FFB2681EF3
:1034D000384482B221462846FFF792FF00252DE0AE
:1034E00010981299A0F1200000FB06504FF0000444
:1034F00031F810804FEA1A2002900AF0FF00019084
:103500004FEA192009F0FF0B009014E008FA04F0CC
:10351000000406D502988DF80C0001988DF80D0076
:1035200004E000988DF80C008DF80DB0022103A87E
:1035300000F030F8641CA742E8D86D1CAE42CFD82A
:1035400004B00122BDE8F01F802102485DF814EBB1
:10355000FEF77EBD0004024031B50C4C00228021F4
:103560002046FEF775FD0022A1152046FEF770FDEE
:103570004FF0FF33012269460548FFF791F9012218
:1035800080212046FEF764FD38BD000000040240A3
:10359000600100202DE9F047154F0C460646002239
:1035A00080213846FEF754FD012211023846FEF70D
:1035B0004FFD4FF480384FF6FF794FF0FF3A0DE0A2
:1035C000444501D3484600E0204685B253462A468A
:1035D00031460848FFF764F92E44641B002CEFD1F4
:1035E0003846BDE8F04701228021FEF731BD0000DA
:1035F000000402406001002031B50C4C0022802103
:103600002046FEF725FD012211022046FEF720FD8F
:103610004FF0FF33012269460548FFF741F90122C7
:1036200080212046FEF714FD38BD00000004024052
:10363000600100202DE9FE4FDFF86890DDE90DBA4A
:1036400014460E4605469846002280214846FEF75D
:10365000FFFC08F0FF0719E07819F0280AD3C8F337
:10366000072081198EB200253044B0F5A07F10D21A
:10367000202A0AD0CDE901BA0C9800904346314681
:103680002846FFF711FF781985B2641C2278002ABA
:10369000E2D103B04846BDE8F04F01228021FEF799
:1036A000D7BC0000000402408AB01548FFF736FA84
:1036B00008B1FCF739FF00200090032002900120A0
:1036C000039002200F4C104F104DC61E049032463E
:1036D00005A8A16900F04EFA01213846FEF7B0FCBA
:1036E000FEF77EFB08A96846FEF724FB28460699EC
:1036F000FDF7FCF9FEF76AFB2868E062E7E70000E7
:10370000B8010020080000200004024000C00008AA
:10371000104CDFF844804FF0FF3704F134050126E8
:103720003946206A00F0E6FA02214046FEF788FC9E
:10373000A08D2870000A074B687008493033267046
:103740001A1DA1F5A870FDF7BBFC0028E8D072B6E1
:10375000FEE7000008000020000402406002002094
:103760008CB04FF0FF36154CDFF854A0154F4FF0DA
:1037700000084FF00109350C3146606A00F0BAFAD2
:1037800002215046FEF75CFC84F80090324608A8FF
:10379000E16900F0EFF90CA103A8099AFCF740FEDB
:1037A0002846FFF739FDCDE901587868009003AA53
:1037B000962128203B68FFF73DFFDDE70800002049
:1037C00000040240000000204144432076616C75F3
:1037D000652069733A202564202F20343039350064
:1037E00010B5502080F31188BFF34F8FBFF36F8F58
:1037F00001F034FC18B104494FF0805008600020FB
:1038000080F3118810BD000004ED00E030B593B0E6
:1038100030216846FCF707FF14210CA8FCF703FFD2
:103820001C480025016841F080510160006800F0EB
:10383000805011901848016841F48041016000688F
:10384000022400F480401190012003901020049085
:10385000009406940820CDE907503C20CDE90904E6
:1038600004200B906846FEF7C5FD08B172B6FEE76E
:103870000CA90F2031C14FF480500F9010900121FE
:103880000CA8FEF7BBFC002801D072B6FEE713B00F
:1038900030BD00004038024000700040024801681E
:1038A00041F470010160704788ED00E00148FFF7C6
:1038B000E3B90000E43700200148FFF7DDB900005C
:1038C000B8010020F0B50268294C2A4D2A4E2B4F32
:1038D0002B4B4FF0804CA04209D0604507D0A84246
:1038E00005D0B04203D0B84201D0984204D122F0B2
:1038F000700E4A6842EA0E02A0421BD0604519D001
:10390000A84217D0B04215D0B84213D0984211D077
:103910001C4DA8420ED01C4DA8420BD01B4DA842F6
:1039200008D01B4DA84205D01A4DA84202D01A4D0E
:10393000A84203D122F44075CA682A434D6922F097
:1039400080022A4302608A68C2620A688262A042D8
:1039500001D0984201D109690163012141610169E6
:10396000C90703D0016921F001010161F0BD000028
:10397000000001400004004000080040000C00402E
:103980000004014000400140004401400048014063
:1039900000180040001C00400020004010B5846862
:1039A00042EA032224F47F440A432243826010BD8A
:1039B000826822F070020A4342F00701816070477A
:1039C00010B5036A046A24F001040462846924F0D7
:1039D000F00444EA021423F00A020A4384610262FA
:1039E00010BD10B5036A046A24F0100404628469EF
:1039F00023F0A00324F4704444EA023243EA0111A4
:103A00008261016210BDFEE70907090E002801DB93
:103A1000034A02E0034A00F00F008154704700009F
:103A200000E400E014ED00E0EFF30580002800D092
:103A300001207047A2B0FEF71FFBFFF7E7FEFFF77C
:103A4000A7FAFFF76DFAFFF7CDF9FFF719FBFFF7BC
:103A5000F5FAFFF7F7F9FFF727FAFFF70FFC3248FF
:103A6000FDF7B2FE30482830FDF7AEFE2E480221A9
:103A70002830FDF713FB2D48022140F20542016179
:103A80000021816002602A4DC1600175D5E9000105
:103A9000CDE91D0101211DA800F0E4F8254C2062AC
:103AA000D5E90201CDE91F0101211FA800F0DAF8D4
:103AB000606205F110000DF1540C0FC8ACE80F0066
:103AC000002115A800F043F82035A0610FCD0DF1BD
:103AD000640CACE80F00002119A800F038F8E06190
:103AE0001C2229466846FCF76CFD0021684600F060
:103AF00033F9E0601C2205F11C0107A8FCF761FD09
:103B0000002107A800F028F920611C2205F13801E6
:103B10000EA8FCF756FD00210EA800F01DF960610B
:103B200000F010F8FEE70000100100206002002005
:103B3000FC5A00080800002001460020842900D01B
:103B4000C81C704710B500F065FD002010BD38B5E9
:103B5000D0E9011204683AB1C3682BB1002000908B
:103B6000204600F060FE38BD2046BDE83840002207
:103B700000F038BE2DE9FF410D004FF00006CDE901
:103B8000016507461ED000240396501C1FD002B1C9
:103B90001446FFF749FF69464FF01008E8B103AA41
:103BA000091D284601F0B0F8012813D000960398AB
:103BB000E8B114494FF080500860BFF34F8FBFF356
:103BC0006F8F14E0802031462A46009011E04FF0BC
:103BD000FF34DEE7CDF80080E9E72246091D2846DC
:103BE00000F0F6FF012807D04CB1402000909DE87E
:103BF000070007C7BDE8FF81CDF80080F7E7002088
:103C0000F4E7000004ED00E037B5054682B000207F
:103C10000090140000D10124FFF706FF4FF00003CD
:103C200088B16A4603A9284600F024FF012811D173
:103C3000009890B10A494FF080500860BFF34F8F51
:103C4000BFF36F8F09E0224603A9284600F062FE09
:103C5000012802D0FF2005B030BD0020FBE70000A6
:103C600004ED00E038B543684BB1012909D10320C8
:103C7000002200901146012000F0D5FD38BD012939
:103C800001D0002038BD03220021012000F0AAFD50
:103C9000040004D000231A46194600F03BFE2046DB
:103CA00038BD000038B5002405460094FFF7BCFE7F
:103CB00090B16946284600F03CFF012801D0FF2062
:103CC00038BD009888B10A494FF080500860BFF3B2
:103CD0004F8FBFF36F8F08E000231A46194628461E
:103CE00000F018FE012800D0FF24204638BD000057
:103CF00004ED00E038B505004FF0000000900FD053
:103D00000024481C0ED001B10C46FFF78DFEB8B15F
:103D10006A460021284600F0F7FF012816D104E08A
:103D2000802038BD4FF0FF34EFE7009880B109499B
:103D30004FF080500860BFF34F8FBFF36F8F07E0E5
:103D40002146284601F02EF8012801D0FF2038BD79
:103D5000002038BD04ED00E07FB50D460446416902
:103D6000B0F9080081B1A16971B1FFF7E5FED4E9AE
:103D700005128DE80700D4E900102B46226901F0F6
:103D800034F9039004B070BDFFF7D6FE03A9CDE966
:103D90000001208A2B4682B2D4E9001001F0F8F825
:103DA000012801D00020EDE70398EBE72DE9F04171
:103DB000184C0F460546E6682068001D00F0C2FA60
:103DC00038B9206890F82C1001208840216981437F
:103DD0002161681C07D137B12168BDE8F041091D98
:103DE0000D4800F0F3BA20683544B54245602168BB
:103DF00001F1040104D2A06BBDE8F04100F0CEBA9D
:103E0000606B00F0CBFAA06A854200D2A562BDE8E3
:103E1000F081000060000020283900202DE9F041E9
:103E2000054600F0DFFA2E4CA068401CA060206818
:103E30002C4F10B1606940B32DE02560A0680128C7
:103E400029D1002606EB860007EB800000F098FAE7
:103E5000761C072EF6D323488C3000F091FA2148C7
:103E6000A03000F08DFA1F48B43000F089FA1D48E8
:103E7000C83000F085FA1B48DC3000F081FA1948A0
:103E80008C3060631430A06305E02068E96AC06A82
:103E9000884200D82560606A401C6062E96A01209F
:103EA000226988401043206101EB810007EB80000C
:103EB000291D00F08BFA00F0B5FA606900280CD0DB
:103EC0002068E96AC06A884207D207494FF08050EB
:103ED0000860BFF34F8FBFF36F8FBDE8F081000024
:103EE000600000204C38002004ED00E030B4026C8B
:103EF0000B46002A0BD0C1681144C1608468A142FE
:103F000001D30168C16030BC1846FCF715BB30BC5A
:103F100070472DE9F041856B174604460026026C78
:103F200082B1C7B1E068FCF707FBE168206C091AB1
:103F3000E1602268914202D2A168081AE060022F73
:103F400016D017E02068A8B9A06801F0EDF8064681
:103F50000020A0600EE06068FCF7EEFA216C60685B
:103F600008446060A168884204D32068606001E072
:103F700005B16D1E6D1CA5633046BDE8F08110B51E
:103F8000044690F8510058B101280CD002280FD0F7
:103F9000502080F31188BFF34F8FBFF36F8FFEE780
:103FA000206B00F053FA2046BDE8104000F04EBAF6
:103FB00010BD000010484FF47051420706D0C01DDC
:103FC0000D4920F00700411AC1F570510B4A00233A
:103FD0000144C2E900030839183A21F007011160D1
:103FE0004B600B600B1AC0E9001393604FF0004068
:103FF00053605061704700003C390020B40000203D
:10400000144E154CA6F1C8074FF08058DFF84C90BD
:1040100012E000BF00F0E6F9F068C568281D00F066
:1040200091F9A068401EA0606068401E606000F0CA
:10403000F9F92846FFF7A3FF60680028EAD138683D
:104040000128F9D9C9F80080BFF34F8FBFF36F8FF4
:10405000F2E70000143900206000002004ED00E0C9
:104060000346009829B10260C0E90F31012100F038
:104070000DBC0060F8E72DE9F0479A46DDE90984B8
:1040800081466FF00303206B03EB82021044089E0D
:1040900020F00707780707D0502080F31188BFF37E
:1040A0004F8FBFF36F8FFEE7002561B1002023180B
:1040B0000A5C83F834200A5C12B1401C1028F6D345
:1040C00084F8435001E084F83450072E00D30626CC
:1040D000E662C4E91165201D00F05DF904F11800E5
:1040E00000F059F9C6F107002461A0616462E5643B
:1040F00084F8505052464946384600F00DF9206089
:10410000B8F1000F01D0C8F80040BDE8F08700000A
:1041100030B5114900E011460A688242FBD34B6872
:104120005C18844203D140681844486008464368DC
:104130001C18944209D1084C183C2468A24209D0AA
:1041400052681A4442600A6812680260814200D0D4
:10415000086030BD0460F9E7B400002010B50446E3
:1041600000F040F9A06B28B15FF0000400F05AF9AC
:10417000204610BD0124F9E70648416B096829B1C2
:10418000416BC968C9684968816270474FF0FF3167
:10419000FAE700006000002006484068401C4FF02D
:1041A000500080F31188BFF34F8FBFF36F8F00D0A3
:1041B000FEE7FEE7BC0000202DE9F041044600F0D8
:1041C00011F994F9455004F1240609E0606A48B1F8
:1041D000304601F03BF808B100F0AEF96D1E6DB24B
:1041E000002DF3DC4FF0FF3684F8456000F01AF93B
:1041F00000F0F8F894F9445004F1100709E0206940
:1042000048B1384601F022F808B100F095F96D1E6A
:104210006DB2002DF3DC84F84460BDE8F04100F09D
:1042200001B900002DE9F0410546002700F028FA09
:10423000324E306808B9FFF7BDFE706905424ED1B5
:10424000C5B3083568070ED005F00700C0F10800B7
:104250000544680707D0502080F31188BFF34F8FC3
:10426000BFF36F8FFEE72DB37068854237D82348C0
:10427000183001460C6801E020460C466168A942EE
:1042800002D221680029F7D131688C4227D0076813
:104290002168016060680837411B10290FD9601937
:1042A000420708D0502080F31188BFF34F8FBFF32F
:1042B0006F8FFEE713E041606560FFF729FF6168DB
:1042C0007068401A7060B268904200D2B060706945
:1042D00001430020C4E90001F068401CF06000F0D8
:1042E000EFFF780707D0502080F31188BFF34F8F7E
:1042F000BFF36F8FFEE73846BDE8F0819C000020D9
:104300000449086818B10868826C521C8264086805
:10431000704700006000002010B5031F4FF080744C
:104320001C601B1F21F001011960191F044B0B6059
:1043300014390A60091F6FF0020244380A6010BD88
:1043400099410008D0E9013201699A60D0E901235E
:104350005A604A68824201D182684A600022026142
:104360000868401E0860086870470000034B03603F
:1043700003F15400086080201060704790350020E1
:1043800000F108014FF0FF32C0E90112C160016184
:1043900000210160704700210161704730B50B6852
:1043A0005A1C02D000F1080202E0026904E0224631
:1043B000546825689D42FAD953684B6099608A60B9
:1043C000516008610168491C016030BD42684A6063
:1043D00093688B6093685960916008610168491C1B
:1043E00001607047502080F31188BFF34F8FBFF3F7
:1043F0006F8F0A494868401C486001280CD1084862
:10440000006810F0FF0F07D0502080F31188BFF331
:104410004F8FBFF36F8FFEE770470000BC00002096
:1044200004ED00E00849486828B1401E486001D109
:1044300080F311887047502080F31188BFF34F8FAD
:10444000BFF36F8FFEE70000BC00002070B50028AE
:104450002AD0164DA0F1080460686969084209D0A5
:1044600022687AB1502080F31188BFF34F8FBFF3D9
:104470006F8FFEE7502080F31188BFF34F8FBFF39B
:104480006F8FFEE78843606000F0FAF86068696843
:10449000084468602046FFF73BFE2869401C2861FD
:1044A000BDE8704000F00CBF70BD00009C00002013
:1044B0004FF0E02000210161816105494FF47A72DB
:1044C0000968B1FBF2F1491E4161072101617047A2
:1044D0005C00002010B5FBF707FF114910280FD32F
:1044E0004FF0E022104490F8F0030A78904207D28F
:1044F000502080F31188BFF34F8FBFF36F8FFEE71B
:1045000008480068896800F4E060884207D95020B4
:1045100080F31188BFF34F8FBFF36F8FFEE710BD9D
:10452000BC0000200CED00E002490A6A0260C96884
:10453000416070476000002001490120C861704758
:104540006000002010B50C4650B1094909681831C7
:10455000FFF724FF2046BDE810400121FFF726BCED
:10456000502080F31188BFF34F8FBFF36F8FFEE7AA
:104570006000002070B5040047D0A26CA2B1606C4E
:10458000884200D30146E06A88423ED0012A3CD1ED
:104590001E4D2A6894420FD1502080F31188BFF33A
:1045A0004F8FBFF36F8FFEE7502080F31188BFF36A
:1045B0004F8FBFF36F8FFEE7E162A269002A02DB33
:1045C000C1F10701A161124E00EB8000616906EBA9
:1045D0008000814219D1201DFFF7B4FE012130B9BE
:1045E00094F82C002A6901FA00F082432A61E06AFB
:1045F0002A6981401143296100EB800006EB8000AD
:10460000211DBDE87040FFF7E1BE70BD60000020D5
:104610004C38002010B586B00024039405AA04A9E4
:1046200003A80494FFF7A2FEDDE903010094CDE99D
:10463000011000230EA11048059A00F0D6FC0F4986
:104640000028C86211D0502080F31188BFF34F8F2B
:10465000BFF36F8F4FF0FF30886201204861CC605C
:1046600006B0BDE8104000F041B806B010BD000033
:1046700049444C4500000000014000086000002053
:104680000248016B491C0163704700006000002074
:104690001448016B11B10121C16170470021C16152
:1046A0000169B1FA81F1C1F11F0101EB81020E49EB
:1046B00051F822306BB101EB820101F108034A6825
:1046C00052684A609A4201D152684A60D1680160DA
:1046D0007047502080F31188BFF34F8FBFF36F8F67
:1046E000FEE70000600000204C3800201CB5384870
:1046F0000168384A914207D1502080F31188BFF3F6
:104700004F8FBFF36F8FFEE700683249491E884222
:1047100007D1502080F31188BFF34F8FBFF36F8F05
:10472000FEE72D4908780190FF20087008788DF881
:1047300000009DF800009DF8002000F0F00090427D
:1047400007D0502080F31188BFF34F8FBFF36F8FD6
:10475000FEE79DF80000214C00F05000207007207B
:10476000A06007E09DF80020A0F101004FEA42029E
:104770008DF800209DF800201206F3D4A0600328D5
:1047800007D0502080F31188BFF34F8FBFF36F8F96
:10479000FEE74FF44070A060019808700C4820308C
:1047A000016841F470010160016841F070410160ED
:1047B000FFF77EFE00206060FBF75EFD08480168A1
:1047C00041F040410160FBF743FD00201CBD0000AB
:1047D00000ED00E071C20F4100E400E0BC000020E9
:1047E00034EF00E0F8B517460E46050013D005FB80
:1047F00006F04830FFF716FD04000AD0002084F8C8
:10480000460004F148023B46314628460094FFF733
:1048100027FC2046F8BD502080F31188BFF34F8F4E
:10482000BFF36F8FFEE738B5049D18B153B1CAB11D
:1048300081B120E0502080F31188BFF34F8FBFF388
:104840006F8FFEE7502080F31188BFF34F8FBFF3C7
:104850006F8FFEE7502080F31188BFF34F8FBFF3B7
:104860006F8FFEE739B1502080F31188BFF34F8F6F
:10487000BFF36F8FFEE748241C46012384F84630BF
:104880002B460094FFF7ECFB204638BD70B50D4673
:10489000040025D0FFF7A6FDD4E90F20216802FB14
:1048A0000011A1600021A163216861600A46E06BEC
:1048B000216C401E00FB0121E16004F144014FF036
:1048C000FF300870487004F110008DB1FFF758FDFB
:1048D00004F12400FFF754FDFFF7A4FD012070BD93
:1048E000502080F31188BFF34F8FBFF36F8FFEE727
:1048F00021690029F0D000F0A9FC0028ECD004497F
:104900004FF080500860BFF34F8FBFF36F8FE3E726
:1049100004ED00E02DE9FF4782B01D468A464FF0C6
:104920000008040003D0BAF1000F08D011E05020B5
:1049300080F31188BFF34F8FBFF36F8FFEE7206CBA
:1049400038B1502080F31188BFF34F8FBFF36F8FC2
:10495000FEE7022D0AD1E06B012807D0502080F33A
:104960001188BFF34F8FBFF36F8FFEE700F068FB36
:104970003F4F4FF000094FF0805648B9049838B1C6
:10498000502080F31188BFF34F8FBFF36F8FFEE786
:10499000FFF728FDA06BE16B884207D3022D05D0FD
:1049A0000498D0B1B8F1000F1AD01EE02A46514643
:1049B0002046FFF7AEFA616A19B104F1240000F055
:1049C00045FC20B13E60BFF34F8FBFF36F8FFFF701
:1049D00029FD012006B0BDE8F087FFF723FD22E0A6
:1049E0006846FFF7A1FD4FF00108FFF71BFDFFF739
:1049F00047FEFFF7F7FC94F94400401C01D184F80E
:104A0000449094F94500401C01D184F84590FFF78B
:104A100009FD04A9684600F081FA30B12046FFF78D
:104A2000CBFB00F04DFC0020D4E7FFF7DBFCA06BD4
:104A3000E16B884213D1FFF7F5FC04F110000499F3
:104A4000FFF780FD2046FFF7B7FB00F039FC002898
:104A50009ED13E60BFF34F8FBFF36F8F98E7FFF794
:104A6000E1FC2046FFF7A8FB00F02AFC90E70000DD
:104A700004ED00E02DE9F0471F469046894604000A
:104A800003D0B9F1000F08D011E0502080F3118855
:104A9000BFF34F8FBFF36F8FFEE7206C38B150200C
:104AA00080F31188BFF34F8FBFF36F8FFEE7022FA4
:104AB0000AD1E06B012807D0502080F31188BFF3A2
:104AC0004F8FBFF36F8FFEE7FFF704FD5020EFF32A
:104AD000118680F31188BFF34F8FBFF36F8FA06BE8
:104AE000E16B884206D3022F04D0002086F31188A0
:104AF000BDE8F08794F94550A06B3A4649462046F8
:104B0000FFF707FA681C04D06D1C84F8455001209B
:104B1000ECE7606A0028FAD004F1240000F096FB6C
:104B20000028F4D0B8F1000FF1D00121C8F800102E
:104B3000EDE770B50E46040009D0206C78B1502026
:104B400080F31188BFF34F8FBFF36F8FFEE75020C4
:104B500080F31188BFF34F8FBFF36F8FFEE720689C
:104B600048B9A06838B1502080F31188BFF34F8F47
:104B7000BFF36F8FFEE7FFF7ADFC5020EFF3118519
:104B800080F31188BFF34F8FBFF36F8FA16BE06B82
:104B9000884218D994F94500491CA163411C04D0EE
:104BA000401C84F8450001200EE0606A0028FAD01D
:104BB00004F1240000F04AFB0028F4D0002EF2D0CB
:104BC00001203060EFE7002085F3118870BD000000
:104BD0002DE9F747002683B08A46040003D0BAF1D6
:104BE000000F08D011E0502080F31188BFF34F8FE1
:104BF000BFF36F8FFEE7206C38B1502080F311882F
:104C0000BFF34F8FBFF36F8FFEE700F019FADFF8A5
:104C1000F4804FF000094FF0805748B9059838B13B
:104C2000502080F31188BFF34F8FBFF36F8FFEE7E3
:104C3000FFF7D8FBA56BC5B151462046FFF756F9E3
:104C40006D1EA563206950B104F1100000F0FEFA5A
:104C500028B1C8F80070BFF34F8FBFF36F8FFFF715
:104C6000E1FB012006B0BDE8F087059808B11EB150
:104C700006E0FFF7D7FB27E06846FFF755FC012663
:104C8000FFF7D0FBFFF7FCFCFFF7ACFB94F9440007
:104C9000401C01D184F8449094F94500401C01D196
:104CA00084F84590FFF7BEFB05A9684600F036F989
:104CB000002820460AD0FFF77FFA00F001FB2046CB
:104CC000FFF74CFA0028B3D00020CBE7FFF746FAF5
:104CD00090B104F124000599FFF734FC2046FFF75A
:104CE0006BFA00F0EDFA0028A2D1C8F80070BFF30B
:104CF0004F8FBFF36F8F9BE72046FFF75DFA00F001
:104D0000DFFA95E704ED00E02DE9F047904689468B
:104D1000040003D0B9F1000F08D011E0502080F357
:104D20001188BFF34F8FBFF36F8FFEE7206C38B150
:104D3000502080F31188BFF34F8FBFF36F8FFEE7D2
:104D4000FFF7C8FB5020EFF3118680F31188BFF303
:104D50004F8FBFF36F8FA76BF7B194F9445049465B
:104D60002046FFF7C3F87F1EA763681C04D06D1CA4
:104D700084F84450012010E020690028FAD004F1A2
:104D8000100000F063FA0028F4D0B8F1000FF1D061
:104D90000121C8F80010EDE7002086F31188BDE876
:104DA000F08700002DE9F343002683B00400354668
:104DB00009D0206C78B1502080F31188BFF34F8F59
:104DC000BFF36F8FFEE7502080F31188BFF34F8F42
:104DD000BFF36F8FFEE700F033F9DFF83C814FF04F
:104DE00000094FF0805748B9049838B1502080F33B
:104DF0001188BFF34F8FBFF36F8FFEE7FFF7F2FA13
:104E0000A06BC8B1401EA063206810B9FFF778FA04
:104E1000A060206950B104F1100000F017FA28B129
:104E2000C8F80070BFF34F8FBFF36F8FFFF7FAFA28
:104E3000012005B0BDE8F083049808B166B10FE029
:104E40003DB1502080F31188BFF34F8FBFF36F8FB8
:104E5000FEE7FFF7E7FA5DE06846FFF765FB01262E
:104E6000FFF7E0FAFFF70CFCFFF7BCFA94F94400F7
:104E7000401C01D184F8449094F94500401C01D1B4
:104E800084F84590FFF7CEFA04A9684600F046F88A
:104E90000028204612D0FFF78FF900F011FA2046C3
:104EA000FFF75CF90028A9D09DB3FFF79BFA606A71
:104EB00050B3206B0068C0F1070126E0FFF74EF900
:104EC000E0B1206838B9FFF78DFAA06800F078F9F2
:104ED0000546FFF7A7FA04F124000499FFF732FB17
:104EE0002046FFF769F900F0EBF9002886D1C8F8F1
:104EF0000070BFF34F8FBFF36F8F7FE72046FFF740
:104F00005BF900F0DDF979E70021A068FFF732FBDB
:104F10009FE7FFE700208CE704ED00E02DE9F0417A
:104F20000C46050011D0C4B1FFF75CFA174BDA68E4
:104F30006E682068911B471C17D02F681B6A9F4220
:104F400019D0964217D8012410E0502080F3118820
:104F5000BFF34F8FBFF36F8FFEE7502080F31188B0
:104F6000BFF34F8FBFF36F8FFEE70024FFF75AFAAE
:104F70002046BDE8F081884205D9401A20602846C5
:104F8000FFF7D2FAF1E700202060DCE760000020A4
:104F90002DE9FF5F8346DDE90E87994616468A466E
:104FA0009000FFF73FF905001CD05420FFF73AF9B5
:104FB000040014D00020256384F85100CDE902409C
:104FC000CDE900874B46324651465846FFF753F825
:104FD0002046FEF723FF012004B0BDE8F09F2846DD
:104FE000FFF734FA4FF0FF30F6E7F0B585B0DDE9B2
:104FF0000B640A9DA6B1DCB15427009726630226F4
:1050000084F85160002604AFCDE90246CDE900578F
:10501000FFF731F82046FEF701FF049805B0F0BD18
:10502000502080F31188BFF34F8FBFF36F8FFEE7DF
:10503000502080F31188BFF34F8FBFF36F8FFEE7CF
:105040000548416919B1006B18B100207047012073
:105050007047022070470000600000202DE9F041F9
:105060002F4C0026206B28B1A069401CA06130465F
:10507000BDE8F081E5686D1CE56013D1606B0068E8
:1050800038B1502080F31188BFF34F8FBFF36F8F7B
:10509000FEE7606BA16B6163A063206A401C206225
:1050A000FFF76AF8A06ADFF87C80854209D3606B5D
:1050B0000068A0B1606BC068C7687868854211D28B
:1050C000A0622068C06A00EB800158F82100012826
:1050D00000D90126E0690028C9D00126C7E74FF0B2
:1050E000FF30EDE7381DFFF72DF9B86A18B107F169
:1050F0001800FFF727F9F96A012022698840104358
:10510000206101EB810108EB8100391DFFF75EF999
:10511000F86A2168C96A8842C9D30126C7E7000036
:10512000600000204C38002070B504004FF00001F2
:1051300040D0214D2868844207D0502080F3118848
:10514000BFF34F8FBFF36F8FFEE7A06C38B1401EE7
:10515000A064636CE26A9A422CD040B12AE05020ED
:1051600080F31188BFF34F8FBFF36F8FFEE7201DD1
:10517000FFF7E8F8114A012150B9E06A00EB80031B
:1051800052F8233023B92B6901FA00F083432B61D5
:10519000606CE062C0F10700A061E06A2B698140A9
:1051A0001943296100EB800002EB8000211DFFF70D
:1051B0000DF90121084670BD600000204C38002028
:1051C00070B504004FF0000034D01E4DE16A2A682B
:1051D000D26A91422FD2A069002804DB2868C06AF5
:1051E000C0F10700A061184E01EB8101606906EB78
:1051F000810188421AD1201DFFF7A4F8012130B99E
:1052000094F82C002A6901FA00F082432A61286888
:10521000C06AE0622A6981401143296100EB800085
:1052200006EB8000211DFFF7D1F802E02868C06A74
:10523000E062012070BD616C2A68D26A9142F8D3A5
:1052400070BD0000600000204C3800202DE9F041C6
:10525000C068C468ACB104F118000746FFF772F8E3
:10526000154D286B0126A0B139461448FFF7AEF85A
:10527000E06A2968C96A88421CD90120EE61BDE84C
:10528000F081502080F31188BFF34F8FBFF36F8FF1
:10529000FEE7201DFFF756F8E16A2A6906FA01F0D9
:1052A0001043286101EB81000449B43901EB80000F
:1052B000211DDBE70020E2E760000020003900202C
:1052C0002DE9F0472C4D00242746286B38B1FFF715
:1052D00089F8286B401E2863286B40B146E05020B7
:1052E00080F31188BFF34F8FBFF36F8FFEE7A9687C
:1052F000224E0120D1B3A6F1B40980463068E8B14E
:10530000F068C46804F11800FFF71CF8201DFFF7CF
:1053100019F8E06A2A6908FA00F11143296100EBE3
:10532000800109EB8100211DFFF750F8E06A296830
:10533000C96A8842E2D3C5F81C80DFE70CB1FEF7EA
:105340001BFFAC6944B14646FFF788FE00B1EE6131
:10535000641EF9D10020A861E86938B10849012725
:1053600038070860BFF34F8FBFF36F8FFFF75AF80E
:105370003846BDE8F08700006000002000390020BA
:1053800004ED00E04FF04070E1EE100A70470000BD
:10539000000000000000000000000000000000000D
:1053A000000000100010001000100010001000009D
:1053B0000010000000000028002800280000000065
:1053C0000000000000000000000000240024007C19
:1053D00000240048007C004800480000000000381D
:1053E00000540050003800140054005400380010DD
:1053F0000000002000540058003000280054001421
:1054000000080000000000100028002800100034F0
:105410000048004800340000000000100010001098
:105420000000000000000000000000000000000874
:10543000001000200020002000200020002000108C
:1054400000080020001000080008000800080008FC
:105450000008001000200010003800100028000094
:10546000000000000000000000000000000000102C
:105470000010007C00100010000000000000000080
:1054800000000000000000000000000000100010FC
:1054900000100000000000000000000000380000C4
:1054A00000000000000000000000000000000000FC
:1054B00000000000001000000000000800080010BC
:1054C0000010001000100020002000000000003834
:1054D00000440044005400440044004400380000EC
:1054E00000000010003000500010001000100010EC
:1054F00000100000000000380044004400040008D0
:1055000000100020007C000000000038004400046F
:1055100000180004000400440038000000000008E7
:105520000018002800280048007C0008000800003F
:105530000000007C004000400078000400040044AB
:1055400000380000000000380044004000780044AB
:1055500000440044003800000000007C0004000803
:105560000010001000200020002000000000003883
:105570000044004400380044004400440038000067
:1055800000000038004400440044003C0004004493
:1055900000380000000000000000001000000000C3
:1055A00000000000001000000000000000000000EB
:1055B00000100000000000000010001000100000AB
:1055C0000000000C003000400030000C0000000023
:1055D0000000000000000000007C0000007C0000D3
:1055E000000000000000000000000060001800043F
:1055F00000180060000000000000003800440004B3
:10560000000800100010000000100000000000382A
:105610000044004C0054005C004000400038000092
:10562000000000100028002800280028007C00440A
:10563000004400000000007800440044007800446A
:10564000004400440078000000000038004400409E
:10565000004000400040004400380000000000709E
:10566000004800440044004400440048007000002A
:105670000000007C00400040007C004000400040F2
:10568000007C00000000007C0040004000780040EA
:10569000004000400040000000000038004400408E
:1056A0000040005C0044004400380000000000445A
:1056B00000440044007C00440044004400440000D6
:1056C0000000003800100010001000100010001042
:1056D000003800000000000400040004000400047E
:1056E000000400440038000000000044004800505E
:1056F00000600050004800480044000000000040E6
:10570000004000400040004000400040007C00009D
:1057100000000044006C006C00540044004400444D
:105720000044000000000044006400640054005481
:10573000004C004C004400000000003800440044CD
:105740000044004400440044003800000000007899
:105750000044004400440078004000400040000045
:105760000000003800440044004400440044005459
:105770000038000400000078004400440044007831
:105780000048004800440000000000380044004089
:105790000030000800040044003800000000007CD5
:1057A0000010001000100010001000100010000089
:1057B000000000440044004400440044004400440D
:1057C0000038000000000044004400440028002885
:1057D00000280010001000000000004400440054A5
:1057E00000540054006C0028002800000000004411
:1057F00000280028001000100028002800440000A5
:105800000000004400440028002800100010001090
:10581000001000000000007C0004000800100010D0
:1058200000200040007C0000000000180010001064
:1058300000100010001000100010001000180020D0
:1058400000200010001000100010000800080000E8
:1058500000000030001000100010001000100010B8
:105860000010001000300010002800280044000044
:105870000000000000000000000000000000000028
:1058800000000000000000000000000000FE0020FA
:1058900000100000000000000000000000000000F8
:1058A00000000000000000380044003C0044004CB0
:1058B0000034000000000040004000580064004434
:1058C00000440064005800000000000000000038A0
:1058D0000044004000400044003800000000000484
:1058E00000040034004C00440044004C003400002C
:1058F00000000000000000380044007C004000442C
:10590000003800000000000C0010007C00100010A7
:105910000010001000100000000000000000003423
:10592000004C00440044004C003400040078004067
:10593000004000580064004400440044004400005B
:105940000000001000000070001000100010001097
:105950000010000000000010000000700010001097
:10596000001000100010001000E00040004000484F
:10597000005000600050004800440000000000702B
:1059800000100010001000100010001000100000A7
:10599000000000000000007800540054005400543F
:1059A00000540000000000000000005800640044A3
:1059B00000440044004400000000000000000038E3
:1059C000004400440044004400380000000000008F
:1059D0000000005800640044004400640058004087
:1059E0000040000000000034004C00440044004C23
:1059F000003400040004000000000058006400406F
:105A0000004000400040000000000000000000389E
:105A1000004400300008004400380000000000206E
:105A20000020007800200020002000200018000046
:105A30000000000000000044004400440044004C0A
:105A40000034000000000000000000440044002872
:105A50000028002800100000000000000000005492
:105A600000540054006C00280028000000000000D2
:105A7000000000440028001000100028004400002E
:105A8000000000000000004400440028002800102E
:105A900000100010006000000000007C00080010F2
:105AA00000200040007C00000000001800100010E2
:105AB000001000200020001000100010001800103E
:105AC0000010001000100010001000100010001056
:105AD0000010003000100010001000080008001036
