:020000040800F2
:1000000070770020E9020008C71000086710000898
:10001000C51000083B050008B912000800000000E8
:10002000000000000000000000000000290200089D
:100030003D05000800000000850200081D110008B1
:100040000303000803030008030300080303000878
:100050000303000803030008030300080303000868
:100060000303000803030008030300080303000858
:100070000303000803030008030300080303000848
:100080000303000803030008030300080303000838
:100090000303000803030008030300080303000828
:1000A0000303000803030008030300080303000818
:1000B000D511000803030008030300080303000828
:1000C00003030008030300080303000803030008F8
:1000D00003030008030300080303000803030008E8
:1000E00003030008030300080303000803030008D8
:1000F00003030008030300080303000803030008C8
:1001000003030008030300080303000803030008B7
:1001100003030008030300080303000803030008A7
:100120000303000803030008030300080303000897
:1001300003030008000000000000000003030008A3
:100140000303000803030008030300080303000877
:100150000303000803030008030300080303000867
:100160000303000803030008030300080303000857
:100170000303000803030008000000000000000063
:10018000030300080303000800F002F800F03CF845
:100190000AA090E8000C82448344AAF10107DA45E2
:1001A00001D100F031F8AFF2090EBAE80F0013F0F8
:1001B000010F18BFFB1A43F001031847C01C0000D1
:1001C000E01C0000103A24BF78C878C1FAD8520762
:1001D00024BF30C830C144BF04680C6070470000C1
:1001E0000023002400250026103A28BF78C1FBD840
:1001F000520728BF30C148BF0B6070471FB501F0E0
:10020000F5FD1FBD10B510BD00F061F91146FFF7F7
:10021000F5FF01F063F800F07FF903B4FFF7F2FF98
:1002200003BC00F083F900002C4B19680868B0E8A3
:10023000F04F80F30988BFF36F8F4FF0000080F319
:10024000118870470000000008480068006880F3CB
:1002500008884FF0000080F3148862B661B6BFF3DF
:100260004F8FBFF36F8F00DF00BF00BF08ED00E0CE
:10027000DFF80C00016841F470010160704700BFB5
:1002800088ED00E0EFF30980BFF36F8F134B1A681E
:100290001EF0100F08BF20ED108A20E9F04F10600B
:1002A00009B44FF0500080F31188BFF34F8FBFF3B4
:1002B0006F8F01F0D1FB4FF0000080F3118809BC73
:1002C00019680868B0E8F04F1EF0100F08BFB0ECD6
:1002D000108A80F30988BFF36F8F70471C000020DD
:1002E000EFF3058070470000094880470948004740
:1002F000FEE7FEE7FEE7FEE7FEE7FEE7FEE7FEE7D6
:10030000FEE7FEE704480549054A064B7047000032
:10031000C511000889010008707100207077002065
:10032000707300207073002053EA020C00F06980A3
:100330002DE9F04B4FF00006002B1FBFB3FA83F5F9
:1003400003FA05F424FA05F65E4012BF1643B2FA2A
:1003500082F502FA05F4C5F120051EBF22FA05FC5C
:1003600044EA0C04203556EA044C4FEA144418BF02
:10037000641C4FF000084FF00009904271EB030C31
:1003800039D3002919BFB1FA81F701FA07F6B0FA9B
:1003900080F700FA07F6C7F120071EBF20FA07FC16
:1003A00046EA0C062037B6FBF4FCA7EB0507103F26
:1003B00007F01F0BCBF120060CFA0BFB2CFA06F60C
:1003C00044BFB3460026202FA4BF5E464FF0000B6B
:1003D0005BEA060C08BF4FF0010B19EB0B09ABFBF6
:1003E000027C48EB0608C01B06FB02CC0BFB03CCCF
:1003F00071EB0C01C1E70B46024641464846BDE899
:10040000F08B13B54FF000004FF00001AFF3008008
:10041000BDE81C40704710B5203AC0F00B80B1E831
:100420001850203AA0E81850B1E81850A0E8185029
:10043000BFF4F5AF5FEA027C24BFB1E81850A0E832
:10044000185044BF18C918C0BDE810405FEA827C4C
:1004500024BF51F8043B40F8043B08BF7047D20763
:1004600028BF31F8023B48BF11F8012B28BF20F804
:10047000023B48BF00F8012B70474FF0000200B567
:10048000134694469646203922BFA0E80C50A0E8B7
:100490000C50B1F12001BFF4F7AF090728BFA0E865
:1004A0000C5048BF0CC05DF804EB890028BF40F831
:1004B000042B08BF704748BF20F8022B11F0804F73
:1004C00018BF00F8012B704770477047704775469A
:1004D00000F028F8AE4605006946534620F00700B4
:1004E000854618B020B5FFF70DFFBDE820404FF05E
:1004F00000064FF000074FF000084FF0000B21F00E
:100500000701AC46ACE8C009ACE8C009ACE8C009DA
:10051000ACE8C0098D4670470446AFF30080204622
:10052000FFF77BFE004870470C710020014918203E
:10053000ABBEFEE7260002007047FEE770470000F2
:100540002DE9F84FDFF8BCA10022012503264FF06A
:100550000F090AF1040BAAF1040E00BF0B6805FA9B
:1005600002F42340A34270D10F7907F00307012F53
:1005700001D0022F16D187684FEA420806FA08FC1C
:1005800027EA0C07D1F80CC00CFA08FC4CEA070C5F
:10059000C0F808C04768A7430C79C4F3001494401E
:1005A0003C4344600C79E443A4070AD0C4684FEA92
:1005B000420C06FA0CF7BC438F6807FA0CF7274386
:1005C000C7600C7904F00304022C10D1D40800EBAE
:1005D0008407B8463F6A54074FEAD46C09FA0CF412
:1005E000A7430C6904FA0CF43C43C8F820400468A3
:1005F000570006FA07FC24EA0C0491F804C00CF03A
:10060000030C0CFA07FC4CEA040CC0F800C04C6860
:1006100014F4403F6FD03C4C276847F48047276074
:10062000246822F0030704F480440094374C3C44CF
:10063000A046276894074FEA147C09FA0CF4A743F4
:10064000334CA04202D1002424E054E0314CA042BB
:1006500001D101241EE0304CA04201D1022419E056
:100660002E4CA04201D1032414E02D4CA04201D114
:1006700004240FE02B4CA04201D105240AE02A4CAF
:10068000A04201D1062405E0284CA04201D1072454
:1006900000E0082404FA0CF43C43C8F80040DAF8FF
:1006A00000405746D1F804C09C435FEACC2C00D5EB
:1006B0001C433C60DBF800405F46D1F804C09C431B
:1006C0005FEA8C2C00D51C433C60DEF80040774686
:1006D000D1F804C09C435FEA8C3C00D51C433C60CD
:1006E000084F083F3C68D1F804C09C435FEACC3C0B
:1006F00000D51C433C60521C102AFFF42FAFBDE80C
:10070000F88F0000083C014044380240083801409E
:10071000000002400004024000080240000C0240B9
:10072000001002400014024000180240001C024069
:10073000426921EA02030A4043EA024181617047AB
:100740000AB1816170470904FBE700000148806835
:10075000704700000C0000200248816802781144B4
:10076000816070470C0000200B4810B5016841F40F
:1007700000710160016841F480610160016841F429
:1007800080710160032000F09FF80F2000F006F850
:1007900000F050F8002010BD003C024030B5054686
:1007A000204887B00024016841F001010160006821
:1007B00006A900F00100009001A800F031F90498AA
:1007C000B0B100F04DF9400017494FF08042B0FB46
:1007D000F1F11648491E026040F2E732C0E90324F5
:1007E000C0E90114846100F035FB040003D015E07A
:1007F00000F036F9E8E70D4800F052FB04000DD197
:100800001C2000F033F8102D07D2002229461C20AE
:1008100000F03AF80648056000E0012407B02046E1
:1008200030BD00004038024040420F00D433002069
:10083000100000200C4882B0016841F48041016042
:10084000006800F4804000900748001F016841F0F4
:10085000805101600068002200F0805000900F215C
:10086000901E02B000F010B84438024000280ADBA5
:1008700000F01F020121914040094FF0E02202EBFD
:100880008000C0F800117047F0B40E4B1B680C4696
:10089000C3F30223C3F10705042D00D90425191D54
:1008A000072901D2002300E0DB1E012606FA05F12C
:1008B000491E214099409E40761E16403143F0BCAF
:1008C00000F0FCBC0CED00E0064900F007020868EF
:1008D0004FF6FF03184040EA0220034A1043086025
:1008E000704700000CED00E00000FA052DE9F0472C
:1008F0000E46050065D0DFF81481D8F80000F7B285
:1009000000F00700B04207D288F80070D8F8000065
:1009100000F00700B04254D128683D4C810712D541
:10092000400703D5206840F4E05020602878000795
:1009300003D5206840F4604020602068A96820F05A
:10094000F000084320602878C0072DD0304968683F
:100950000839012812D0022813D0032811D00968C1
:10096000890700292DDA216821F003010143216064
:10097000FFF7ECFE814641F2883A0EE009688903F0
:10098000EFE709688901ECE7FFF7E0FEA0EB09015A
:10099000514502D90320BDE8F0872068696800F05E
:1009A0000C00B0EB810FEFD1D8F80010404601F0F9
:1009B0000701B14207D90770006800F00700B04294
:1009C00001D00120E7E72878400705D52068E968CD
:1009D00020F4E050084320602878000706D52068FE
:1009E000296920F4604040EAC100206000F048F826
:1009F0002168084AC1F30311515CC84006490860E8
:100A000006480068FFF7CAFE0020C4E7003C024029
:100A1000083802404C1E000818000020100000207A
:100A20000F2202600C4A136803F00303436013684B
:100A300003F0F0038360136803F4E053C3601268AB
:100A40004FF4E05303EAD20202610448006800F068
:100A5000070008607047000008380240003C024070
:100A60000448054900680968044AC1F38221515CC1
:100A7000C840704718000020083802405C1E00087B
:100A8000154810B5006810F00C02144813D0144932
:100A9000042A0FD0082A0ED10F4C241F2268236885
:100AA00002F03F025B0207D52068C0F38810A0FB6C
:100AB000010106E0084610BD2168C1F38811A1FBC1
:100AC00000010023FFF730FC2168C1F30141491CFC
:100AD0004900B0FBF1F010BD083802400024F400DA
:100AE00040787D012DE9F84F04006ED02078DFF8C2
:100AF0004C93C007A9F104054AD009F1040001682C
:100B0000C1F38101012908D00068C0F381000228E7
:100B10000AD1D9F80000400206D52868800337D5ED
:100B200060680028E1D033E06068B0F5803F10D005
:100B3000B0F5A02F286810D020F4803028602868F5
:100B400020F4802028606068A8B1FFF7FFFD06460A
:100B50000DE0286840F48030F4E740F480202860FD
:100B6000F7E700BFFFF7F2FD801B642873D8286801
:100B70008003F7D50CE0FFF7E9FD064605E000BF6E
:100B8000FFF7E4FD801B6428F0D828688003F7D4C1
:100B90002078DFF8AC8280074FF0000A3ED5A748E6
:100BA000001D016811F00C0F08D00068C0F381002F
:100BB00002280BD1D9F80000400207D4286880072A
:100BC00016D5E068012800D112E033E1E068B8B141
:100BD0000120C8F80000FFF7B9FD064605E000BF98
:100BE000FFF7B4FD801B0228C0D828688007F7D51E
:100BF0002868216920F0F80040EAC10028600DE073
:100C0000C8F800A0FFF7A2FD064604E0FFF79EFD2E
:100C1000801B0228AAD828688007F7D4207800070C
:100C200022D5864F87486169703771B10121016013
:100C3000FFF78CFD064604E0FFF788FD801B0228C5
:100C400009D838688007F7D50EE0C0F800A0FFF794
:100C50007DFD064605E083E0FFF778FD801B022856
:100C60007ED838688007F7D42078400769D5DFF848
:100C7000CCB100270BF13C0BDBF80000C0000BD41B
:100C8000DBF8001041F08051CBF80010DBF80000D9
:100C9000012700F0805000906B4E3068C00510D4E2
:100CA000306840F480703060FFF750FD009005E040
:100CB000FFF74CFD0099401A022851D83068C00552
:100CC000F6D55E4EA0686C3601280FD00528306836
:100CD00010D020F001003060306820F00400306057
:100CE000A068B8B1FFF732FD00900FE0306840F027
:100CF0000100F4E740F004003060F7E7FFF726FD5D
:100D00000099411A41F28830814266D830688007E4
:100D1000F4D50EE0FFF71AFD009007E0FFF716FD8F
:100D20000099411A41F28830814256D830688007D4
:100D3000F4D4012F05D1DBF8001021F08051CBF85D
:100D40000010A069C0B33D49091D0968C1F38101C4
:100D5000022949D00228504607D0C8F8600000E0B8
:100D60003BE0FFF7F3FC04463AE04746C8F8600072
:100D7000FFF7ECFC064604E0FFF7E8FC801B0228C6
:100D80002BD828688001F7D4D4E907010843A16A69
:100D90002E4A490802EB0141626A41EA8211084386
:100DA00094F82C1040EA0161C9F80010012038665F
:100DB000FFF7CCFC044606E03EE000BFFFF7C6FCB0
:100DC000001B022809D828688001F7D534E000BF4D
:100DD000FFF7BCFC001B022802D90320BDE8F88FF6
:100DE00028688001F4D427E00128F7D0D9F8000062
:100DF000E26900F4800191421CD1226A00F03F01B7
:100E0000914217D147F6C071626A0140B1EB821F6F
:100E100010D1A26A4FF0FF3300F4403103EB5202CD
:100E2000B1EB024F06D194F82C1000F07060B0EBDB
:100E3000016F01D00120D1E70020CFE70438024044
:100E400000004742800E4742007000400000FFFF54
:100E50007047704710B5040003D094F83D0010B1FE
:100E600007E0012010BD002084F83C00204600F07F
:100E700015F8022084F83D00211D206800F0B0F92B
:100E800001203D3460726070A070E070207160716C
:100E9000A071E07120722070002010BD704700002A
:100EA00090F83D10012901D001207047022180F8FF
:100EB0003D100168CA6842F00102CA600068114929
:100EC000884214D0B0F1804F11D00F4988420ED023
:100ED0000E4988420BD00E49884208D00D498842FD
:100EE00005D00D49884202D00C49884204D181685E
:100EF00001F00701062903D0016841F001010160FA
:100F0000002070470000014000040040000800403D
:100F1000000C004000040140004001400018004067
:100F200070472DE9F04104460068C66805694FF036
:100F30000007A90713D5B10711D5F91E01610120DA
:100F40002077206880698007204602D0FFF7E8FFFD
:100F500004E000F07EF8204600F07CF82777680770
:100F600016D5700714D521686FF0040008610220BF
:100F700020772068806910F4407F204602D0FFF778
:100F8000CFFF04E000F065F8204600F063F8277713
:100F9000280715D5300713D521686FF008000861C0
:100FA000042020772068C0698007204602D0FFF720
:100FB000B7FF04E000F04DF8204600F04BF827772B
:100FC000E80616D5F00614D521686FF01000086108
:100FD000082020772068C06910F4407F204602D0A6
:100FE000FFF79EFF04E000F034F8204600F032F8EE
:100FF0002777E80708D0F00706D021686FF00100D6
:101000000861204600F027F8280608D5300606D5E6
:1010100021686FF0800008612046FFF719FF68061D
:1010200008D5700606D521686FF04000086120469B
:1010300000F018F8A8060AD5B00608D521686FF0A8
:10104000200008612046BDE8F041FFF702BFBDE87F
:10105000F081704770470068B0F1804F01D1FFF711
:101060007BBB70477047FEE730B587B014216846F8
:10107000FFF703FA11480024016841F00201016002
:10108000016801F002010591016841F00101016070
:1010900000680B4D00F0010005902246072128460C
:1010A000FFF74EFB072000900120CDE901046946BF
:1010B00028460394FFF744FA07B030BD30380240A9
:1010C00000040240FEE7FEE7054C4FF47A7501216B
:1010D0002046FFF72DFB284600F036F9F7E7000021
:1010E00000040240054C4FF47A7502212046FFF7B8
:1010F0001FFB284600F028F9F7E700000004024033
:10110000054C4FF47A7504212046FFF711FB284661
:1011100000F01AF9F7E700000004024010B5502073
:1011200080F31188BFF34F8FBFF36F8F00F096FDF0
:1011300018B104494FF080500860002080F31188F6
:1011400010BD000004ED00E010B592B030216846FB
:10115000FFF793F914210CA8FFF78FF91748002423
:10116000016841F080510160006800F080501190EA
:101170001348016841F4804101600068069400F45E
:1011800080401190022000900120039010200490D4
:101190006846FFF7A7FC08B172B6FEE70F20CDE95D
:1011A0000C040E940F9400210CA81094FFF79EFBE2
:1011B000002801D072B6FEE712B010BD40380240E0
:1011C000007000400248016841F4700101607047FE
:1011D00088ED00E00148FFF7A4BE0000D4330020F2
:1011E000F0B50268294C2A4D2A4E2B4F2B4B4FF05D
:1011F000804CA04209D0604507D0A84205D0B0423B
:1012000003D0B84201D0984204D122F0700E4A684F
:1012100042EA0E02A0421BD0604519D0A84217D066
:10122000B04215D0B84213D0984211D01C4DA842FC
:101230000ED01C4DA8420BD01B4DA84208D01B4D10
:10124000A84205D01A4DA84202D01A4DA84203D197
:1012500022F44075CA682A434D6922F080022A436D
:1012600002608A68C2620A688262A04201D0984223
:1012700001D109690163012141610169C90703D0F5
:10128000016921F001010161F0BD00000000014091
:101290000004004000080040000C00400004014031
:1012A0000040014000440140004801400018004057
:1012B000001C004000200040FEE700000907090E66
:1012C000002801DB034A02E0034A00F00F008154CA
:1012D0007047000000E400E014ED00E096B0FFF776
:1012E00043FAFFF731FFFFF7BFFE1C2211496846A2
:1012F000FFF791F80021684600F032F80E4C0D49D6
:101300001C2220601C3107A8FFF785F8002107A8E0
:1013100000F026F8074960601C2238310EA8FFF75C
:101320007AF800210EA800F01BF8A06000F013F876
:10133000FEE70000F81D0008000000200146002024
:10134000842900D0C81C704710B500B9012000F0F6
:101350001FFB002010BD10B500F040FB002010BDA9
:101360007FB50D4604464169B0F9080081B1A16915
:1013700071B1FFF7E3FFD4E905128DE80700D4E966
:1013800000102B46226900F03EFC039004B070BDB3
:10139000FFF7D4FF03A9CDE90001208A2B4682B2D2
:1013A000D4E9001000F002FC012801D00020EDE794
:1013B0000398EBE72DE9F041184C0F460546E66827
:1013C0002068001D00F01CFA38B9206890F82C1035
:1013D00001208840216981432161681C07D137B110
:1013E0002168BDE8F041091D0D4800F04DBA2068A4
:1013F0003544B5424560216801F1040104D2A06B77
:10140000BDE8F04100F028BA606B00F025FAA06A50
:10141000854200D2A562BDE8F08100001C000020DA
:10142000F83400202DE9F041054600F039FA2E4C41
:10143000A068401CA06020682C4F10B1606940B3C8
:101440002DE02560A068012829D1002606EB860042
:1014500007EB800000F0F2F9761C072EF6D3234844
:101460008C3000F0EBF92148A03000F0E7F91F487C
:10147000B43000F0E3F91D48C83000F0DFF91B4834
:10148000DC3000F0DBF919488C3060631430A06365
:1014900005E02068E96AC06A884200D82560606A71
:1014A000401C6062E96A0120226988401043206183
:1014B00001EB810007EB8000291D00F0E5F900F049
:1014C0000FFA606900280CD02068E96AC06A884277
:1014D00007D207494FF080500860BFF34F8FBFF32A
:1014E0006F8FBDE8F08100001C0000201C3400203C
:1014F00004ED00E010B5044690F8510058B1012801
:101500000CD002280FD0502080F31188BFF34F8FEA
:10151000BFF36F8FFEE7206B00F0F6F92046BDE8C1
:10152000104000F0F1B910BD10484FF4705142075F
:1015300006D0C01D0D4920F00700411AC1F57051B9
:101540000B4A00230144C2E900030839183A21F08C
:10155000070111604B600B600B1AC0E90013936028
:101560004FF0004053605061704700000C35002080
:1015700070000020144E154CA6F1C8074FF080589B
:10158000DFF84C9012E000BF00F08AF9F068C568FF
:10159000281D00F035F9A068401EA0606068401E5C
:1015A000606000F09DF92846FFF7A4FF60680028FE
:1015B000EAD138680128F9D9C9F80080BFF34F8F04
:1015C000BFF36F8FF2E70000E43400201C0000201E
:1015D00004ED00E02DE9F0479A46DDE909848146F3
:1015E0006FF00303206B03EB82021044089E20F08F
:1015F0000707780707D0502080F31188BFF34F8F7B
:10160000BFF36F8FFEE7002561B1002023180A5C4D
:1016100083F834200A5C12B1401C1028F6D384F8F9
:10162000435001E084F83450072E00D30626E662CA
:10163000C4E91165201D00F00CF904F1180000F058
:1016400008F9C6F107002461A0616462E56484F8CA
:10165000505052464946384600F0BCF82060B8F178
:10166000000F01D0C8F80040BDE8F08730B511493F
:1016700000E011460A688242FBD34B685C18844242
:1016800003D1406818444860084643681C189442D7
:1016900009D1084C183C2468A24209D052681A4467
:1016A00042600A6812680260814200D0086030BD62
:1016B0000460F9E7700000200648416B096829B111
:1016C000416BC968C9684968816270474FF0FF3152
:1016D000FAE700001C00002006484068401C4FF05C
:1016E000500080F31188BFF34F8FBFF36F8F00D08E
:1016F000FEE7FEE7780000202DE9F04105460027CF
:1017000000F0A2F9324E306808B9FFF70DFF70699A
:1017100005424ED1C5B3083568070ED005F0070065
:10172000C0F108000544680707D0502080F31188F5
:10173000BFF34F8FBFF36F8FFEE72DB37068854205
:1017400037D82348183001460C6801E020460C4683
:101750006168A94202D221680029F7D131688C4220
:1017600027D007682168016060680837411B10298D
:101770000FD96019420708D0502080F31188BFF3B9
:101780004F8FBFF36F8FFEE713E041606560FFF797
:101790006DFF61687068401A7060B268904200D254
:1017A000B060706901430020C4E90001F068401C8A
:1017B000F06000F0B9FA780707D0502080F3118864
:1017C000BFF34F8FBFF36F8FFEE73846BDE8F08160
:1017D0005800002010B5031F4FF080741C601B1FC1
:1017E00021F001011960191F044B0B6014390A60C4
:1017F000091F6FF0020244380A6010BDD9160008B4
:10180000D0E9013201699A60D0E901235A604A683F
:10181000824201D182684A60002202610868401E4B
:101820000860086870470000034B036003F1540030
:1018300008608020106070478031002000F10801AE
:101840004FF0FF32C0E90112C16001610021016067
:10185000704700210161704730B50B685A1C02D0F7
:1018600000F1080202E0026904E02246546825689B
:101870009D42FAD953684B6099608A605160086153
:101880000168491C016030BD42684A6093688B6002
:1018900093685960916008610168491C0160704754
:1018A000502080F31188BFF34F8FBFF36F8F0A4929
:1018B0004868401C486001280CD10848006810F0B6
:1018C000FF0F07D0502080F31188BFF34F8FBFF375
:1018D0006F8FFEE7704700007800002004ED00E005
:1018E0000849486828B1401E486001D180F311883A
:1018F0007047502080F31188BFF34F8FBFF36F8F75
:10190000FEE700007800002070B500282AD0164DB0
:10191000A0F1080460686969084209D022687AB1B8
:10192000502080F31188BFF34F8FBFF36F8FFEE716
:10193000502080F31188BFF34F8FBFF36F8FFEE706
:101940008843606000F080F86068696808446860F7
:101950002046FFF78BFE2869401C2861BDE87040D7
:1019600000F0E2B970BD0000580000204FF0E02008
:1019700000210161816105494FF47A720968B1FB68
:10198000F2F1491E416107210161704718000020F2
:1019900010B5020014D00F48006B38B1502080F30E
:1019A0001188BFF34F8FBFF36F8FFEE700F04CF845
:1019B00000211046FFF7FEFC00F0B6F9002807D121
:1019C00005494FF080500860BFF34F8FBFF36F8F12
:1019D00010BD00001C00002004ED00E010B586B032
:1019E0000024039405AA04A903A80494FFF71CFF8C
:1019F000DDE903010094CDE9011000230EA1104898
:101A0000059A00F000F90F490028C86211D0502053
:101A100080F31188BFF34F8FBFF36F8F4FF0FF300C
:101A2000886201204861CC6006B0BDE8104000F03B
:101A300041B806B010BD000049444C45000000000C
:101A4000751500081C0000200248016B491C016349
:101A5000704700001C0000201448016B11B10121E7
:101A6000C16170470021C1610169B1FA81F1C1F121
:101A70001F0101EB81020E4951F822306BB101EBDD
:101A8000820101F108034A6852684A609A4201D112
:101A900052684A60D16801607047502080F3118815
:101AA000BFF34F8FBFF36F8FFEE700001C000020D5
:101AB0001C3400201CB538480168384A914207D1CF
:101AC000502080F31188BFF34F8FBFF36F8FFEE775
:101AD00000683249491E884207D1502080F311889E
:101AE000BFF34F8FBFF36F8FFEE72D49087801904A
:101AF000FF20087008788DF800009DF800009DF820
:101B0000002000F0F000904207D0502080F31188B0
:101B1000BFF34F8FBFF36F8FFEE79DF80000214C9E
:101B200000F0500020700720A06007E09DF8002022
:101B3000A0F101004FEA42028DF800209DF800203C
:101B40001206F3D4A060032807D0502080F3118838
:101B5000BFF34F8FBFF36F8FFEE74FF44070A0606D
:101B6000019808700C482030016841F47001016050
:101B7000016841F070410160FFF7F8FE00206060ED
:101B8000FEF776FB0848016841F040410160FEF72E
:101B90005BFB00201CBD000000ED00E071C20F41A6
:101BA00000E400E07800002034EF00E02DE9FF5F62
:101BB0008346DDE90E87994616468A469000FFF770
:101BC0009BFD05001CD05420FFF796FD040014D0A7
:101BD0000020256384F85100CDE90240CDE900875B
:101BE0004B46324651465846FFF7F4FC2046FFF775
:101BF00019FC012004B0BDE8F09F2846FFF784FEE1
:101C00004FF0FF30F6E7F0B585B0DDE90B640A9DD3
:101C1000A6B1DCB1542700972663022684F85160F0
:101C2000002604AFCDE90246CDE90057FFF7D2FC0C
:101C30002046FFF7F7FB049805B0F0BD502080F375
:101C40001188BFF34F8FBFF36F8FFEE7502080F3F3
:101C50001188BFF34F8FBFF36F8FFEE72DE9F0417F
:101C60002F4C0026206B28B1A069401CA061304693
:101C7000BDE8F081E5686D1CE56013D1606B00681C
:101C800038B1502080F31188BFF34F8FBFF36F8FAF
:101C9000FEE7606BA16B6163A063206A401C206259
:101CA000FFF70AFDA06ADFF87C80854209D3606BEC
:101CB0000068A0B1606BC068C7687868854211D2BF
:101CC000A0622068C06A00EB800158F8210001285A
:101CD00000D90126E0690028C9D00126C7E74FF0E6
:101CE000FF30EDE7381DFFF78BFDB86A18B107F13B
:101CF0001800FFF785FDF96A01202269884010432A
:101D0000206101EB810108EB8100391DFFF7BCFD6B
:101D1000F86A2168C96A8842C9D30126C7E700006A
:101D20001C0000201C3400202DE9F0472C4D00241D
:101D30002746286B38B1FFF7B3FD286B401E286398
:101D4000286B40B146E0502080F31188BFF34F8FDD
:101D5000BFF36F8FFEE7A968224E0120D1B3A6F131
:101D6000B40980463068E8B1F068C46804F118002E
:101D7000FFF746FD201DFFF743FDE06A2A6908FAD8
:101D800000F11143296100EB800109EB8100211D65
:101D9000FFF77AFDE06A2968C96A8842E2D3C5F88C
:101DA0001C80DFE70CB1FFF787FCAC6944B1464605
:101DB000FFF754FF00B1EE61641EF9D10020A86165
:101DC000E86938B10849012738070860BFF34F8F29
:101DD000BFF36F8FFFF784FD3846BDE8F087000042
:101DE0001C000020D034002004ED00E04FF04070D3
:101DF000E1EE100A70470000641E0008C9100008D8
:101E0000000000000000000000040000840000202A
:101E1000841000206B1E0008E51000080000000080
:101E20000000000000040000D8100020D82000208E
:101E3000721E0008011100080000000000000000F0
:101E4000000400002C2100202C31002000000000A4
:101E5000000000000102030406070809000000005A
:101E6000010203045461736B3031005461736B30B1
:101E700032005461736B3033000000009C1E000878
:101E80000000002084000000C4010008201F00089A
:101E900084000020EC760000E00100080000000053
:101EA0000000000000000000010000001000000021
:101EB000000000000024F40000000000000000000A
:101EC0000000000000000000000000000000000012
:101ED0000000000000000000000000000000000002
:101EE00000000000000000000000000000000000F2
:101EF00000000000000000000000000000000000E2
:101F000000000000000000000000000000000000D1
:101F10000000000000000000AAAAAAAA0000000019
:040000050800018965
:00000001FF
